{
  "contractName": "Admin",
  "abi": [
    {
      "anonymous": false,
      "inputs": [
        {
          "indexed": true,
          "internalType": "address",
          "name": "customerAddress",
          "type": "address"
        },
        {
          "indexed": true,
          "internalType": "address",
          "name": "orgAddress",
          "type": "address"
        },
        {
          "indexed": false,
          "internalType": "uint256",
          "name": "rating",
          "type": "uint256"
        }
      ],
      "name": "CustomerRated",
      "type": "event"
    },
    {
      "anonymous": false,
      "inputs": [
        {
          "indexed": false,
          "internalType": "uint256",
          "name": "reqid",
          "type": "uint256"
        },
        {
          "indexed": false,
          "internalType": "address",
          "name": "custAddress",
          "type": "address"
        },
        {
          "indexed": false,
          "internalType": "address",
          "name": "ethAddress",
          "type": "address"
        },
        {
          "indexed": false,
          "internalType": "bool",
          "name": "isAllowed",
          "type": "bool"
        }
      ],
      "name": "accessGiven",
      "type": "event"
    },
    {
      "anonymous": false,
      "inputs": [
        {
          "indexed": false,
          "internalType": "address",
          "name": "custAddress",
          "type": "address"
        },
        {
          "indexed": false,
          "internalType": "address",
          "name": "ethAddress",
          "type": "address"
        }
      ],
      "name": "accessRevoked",
      "type": "event"
    },
    {
      "anonymous": false,
      "inputs": [
        {
          "indexed": false,
          "internalType": "address",
          "name": "custAddress",
          "type": "address"
        },
        {
          "indexed": false,
          "internalType": "bool",
          "name": "kycStatus",
          "type": "bool"
        }
      ],
      "name": "customerAdded",
      "type": "event"
    },
    {
      "anonymous": false,
      "inputs": [
        {
          "indexed": false,
          "internalType": "address",
          "name": "custAddress",
          "type": "address"
        },
        {
          "indexed": false,
          "internalType": "bool",
          "name": "kycStatus",
          "type": "bool"
        }
      ],
      "name": "customerUpdated",
      "type": "event"
    },
    {
      "anonymous": false,
      "inputs": [
        {
          "indexed": false,
          "internalType": "address",
          "name": "custAddress",
          "type": "address"
        },
        {
          "indexed": false,
          "internalType": "address",
          "name": "ethAddress",
          "type": "address"
        }
      ],
      "name": "kycRemoved",
      "type": "event"
    },
    {
      "anonymous": false,
      "inputs": [
        {
          "indexed": false,
          "internalType": "string",
          "name": "name",
          "type": "string"
        },
        {
          "indexed": false,
          "internalType": "address",
          "name": "ethAddress",
          "type": "address"
        }
      ],
      "name": "orgAdded",
      "type": "event"
    },
    {
      "anonymous": false,
      "inputs": [
        {
          "indexed": false,
          "internalType": "address",
          "name": "ethAddress",
          "type": "address"
        }
      ],
      "name": "orgRemoved",
      "type": "event"
    },
    {
      "anonymous": false,
      "inputs": [
        {
          "indexed": false,
          "internalType": "uint256",
          "name": "reqid",
          "type": "uint256"
        },
        {
          "indexed": false,
          "internalType": "address",
          "name": "ethAddress",
          "type": "address"
        },
        {
          "indexed": false,
          "internalType": "address",
          "name": "custAddress",
          "type": "address"
        },
        {
          "indexed": false,
          "internalType": "bool",
          "name": "isAllowed",
          "type": "bool"
        }
      ],
      "name": "requestAdded",
      "type": "event"
    },
    {
      "anonymous": false,
      "inputs": [
        {
          "indexed": false,
          "internalType": "uint256",
          "name": "reqid",
          "type": "uint256"
        },
        {
          "indexed": false,
          "internalType": "address",
          "name": "ethAddress",
          "type": "address"
        }
      ],
      "name": "requestRemoved",
      "type": "event"
    },
    {
      "inputs": [],
      "name": "admin",
      "outputs": [
        {
          "internalType": "address",
          "name": "",
          "type": "address"
        }
      ],
      "stateMutability": "view",
      "type": "function"
    },
    {
      "inputs": [
        {
          "internalType": "address",
          "name": "",
          "type": "address"
        }
      ],
      "name": "customerRatings",
      "outputs": [
        {
          "internalType": "uint256",
          "name": "totalRating",
          "type": "uint256"
        },
        {
          "internalType": "uint256",
          "name": "numRatings",
          "type": "uint256"
        }
      ],
      "stateMutability": "view",
      "type": "function"
    },
    {
      "inputs": [
        {
          "internalType": "string",
          "name": "_name",
          "type": "string"
        },
        {
          "internalType": "address",
          "name": "_ethAddress",
          "type": "address"
        }
      ],
      "name": "addOrg",
      "outputs": [
        {
          "internalType": "bool",
          "name": "",
          "type": "bool"
        }
      ],
      "stateMutability": "nonpayable",
      "type": "function"
    },
    {
      "inputs": [
        {
          "internalType": "address",
          "name": "_ethAddress",
          "type": "address"
        }
      ],
      "name": "removeOrg",
      "outputs": [
        {
          "internalType": "bool",
          "name": "",
          "type": "bool"
        }
      ],
      "stateMutability": "nonpayable",
      "type": "function"
    },
    {
      "inputs": [
        {
          "internalType": "address",
          "name": "_ethAddress",
          "type": "address"
        }
      ],
      "name": "viewOrg",
      "outputs": [
        {
          "components": [
            {
              "internalType": "string",
              "name": "name",
              "type": "string"
            },
            {
              "internalType": "address",
              "name": "ethAddress",
              "type": "address"
            }
          ],
          "internalType": "struct Organization",
          "name": "",
          "type": "tuple"
        }
      ],
      "stateMutability": "view",
      "type": "function"
    }
  ],
  "bytecode": "0x608060405234801561001057600080fd5b506108ba806100206000396000f3fe608060405234801561001057600080fd5b50600436106100675760003560e01c8063b7e4a42d11610050578063b7e4a42d146100b8578063f6342c6f146100cb578063f851a4401461010757600080fd5b806388c4ce541461006c578063a1ac9e5714610095575b600080fd5b61007f61007a36600461069c565b610132565b60405161008c91906107f8565b60405180910390f35b6100a86100a33660046106be565b6102d0565b604051901515815260200161008c565b6100a86100c636600461069c565b610469565b6100f26100d936600461069c565b6001602081905260009182526040909120805491015482565b6040805192835260208301919091520161008c565b60005461011a906001600160a01b031681565b6040516001600160a01b03909116815260200161008c565b6040805180820190915260608152600060208201526000546001600160a01b031633146101935760405162461bcd60e51b815260206004820152600a60248201526941646d696e206f6e6c7960b01b60448201526064015b60405180910390fd5b6001600160a01b03808316600081815260036020526040902060010154909116146102005760405162461bcd60e51b815260206004820152601060248201527f4f726720646f65736e7420657869737400000000000000000000000000000000604482015260640161018a565b6001600160a01b03821660009081526003602052604090819020815180830190925280548290829061023190610833565b80601f016020809104026020016040519081016040528092919081815260200182805461025d90610833565b80156102aa5780601f1061027f576101008083540402835291602001916102aa565b820191906000526020600020905b81548152906001019060200180831161028d57829003601f168201915b5050509183525050600191909101546001600160a01b031660209091015290505b919050565b600080546001600160a01b031633146103185760405162461bcd60e51b815260206004820152600a60248201526941646d696e206f6e6c7960b01b604482015260640161018a565b6001600160a01b0380831660008181526003602052604090206001015490911614156103865760405162461bcd60e51b815260206004820152601160248201527f4f726720616c7265616479206164646564000000000000000000000000000000604482015260640161018a565b6040805180820182528481526001600160a01b038416602080830182905260009182526003815292902081518051929391926103c592849201906105af565b50602091820151600191820180546001600160a01b039283167fffffffffffffffffffffffff00000000000000000000000000000000000000009182161790915590851660008181526004909452604080852080549093169091178255910191909155517f19cb05bcb9f3a5aa3801619041099231656235762a3599eed02cdcac38facd1c9061045890859085906107cd565b60405180910390a150600192915050565b600080546001600160a01b031633146104b15760405162461bcd60e51b815260206004820152600a60248201526941646d696e206f6e6c7960b01b604482015260640161018a565b6001600160a01b038083166000818152600360205260409020600101549091161461051e5760405162461bcd60e51b815260206004820152601060248201527f4f726720646f65736e7420657869737400000000000000000000000000000000604482015260640161018a565b6001600160a01b0382166000908152600360205260408120906105418282610633565b5060010180547fffffffffffffffffffffffff00000000000000000000000000000000000000001690556040516001600160a01b03831681527f4630061df51c52d44a3987b904c6ff220da2cbdeff03ce8750cd14652cae0c6c9060200160405180910390a1506001919050565b8280546105bb90610833565b90600052602060002090601f0160209004810192826105dd5760008555610623565b82601f106105f657805160ff1916838001178555610623565b82800160010185558215610623579182015b82811115610623578251825591602001919060010190610608565b5061062f929150610670565b5090565b50805461063f90610833565b6000825580601f1061064f575050565b601f01602090049060005260206000209081019061066d9190610670565b50565b5b8082111561062f5760008155600101610671565b80356001600160a01b03811681146102cb57600080fd5b6000602082840312156106ae57600080fd5b6106b782610685565b9392505050565b600080604083850312156106d157600080fd5b823567ffffffffffffffff808211156106e957600080fd5b818501915085601f8301126106fd57600080fd5b81358181111561070f5761070f61086e565b604051601f8201601f19908116603f011681019083821181831017156107375761073761086e565b8160405282815288602084870101111561075057600080fd5b82602086016020830137600060208483010152809650505050505061077760208401610685565b90509250929050565b6000815180845260005b818110156107a65760208185018101518683018201520161078a565b818111156107b8576000602083870101525b50601f01601f19169290920160200192915050565b6040815260006107e06040830185610780565b90506001600160a01b03831660208301529392505050565b6020815260008251604060208401526108146060840182610780565b90506001600160a01b0360208501511660408401528091505092915050565b600181811c9082168061084757607f821691505b6020821081141561086857634e487b7160e01b600052602260045260246000fd5b50919050565b634e487b7160e01b600052604160045260246000fdfea26469706673582212200bce01ad047d73534261edf9b70af73534df13c8254b50f67039f99abbaeae1764736f6c63430008070033",
  "immutableReferences": {},
  "source": "// SPDX-License-Identifier: MIT\npragma solidity >=0.4.22 <0.9.0;\nimport \"./Variables.sol\";\nimport \"./Modifiers.sol\";\nimport \"./Events.sol\";\n\ncontract Admin is Variables, Modifiers, Events{\n\n     //Add organization ONLY BY ADMIN\n    function addOrg(\n        string memory _name,\n        address _ethAddress\n    ) public isAdmin returns (bool) {\n        require(\n            organizations[_ethAddress].ethAddress != _ethAddress,\n            \"Org already added\"\n        );\n        organizations[_ethAddress] = Organization(_name, _ethAddress);\n        kycrequestsbyorg[_ethAddress].ethAddress = _ethAddress;\n        kycrequestsbyorg[_ethAddress].req_count = 0;\n        emit orgAdded(_name, _ethAddress);\n        return true;\n    }\n\n    //Remove Organization ONLY BY ADMIN\n    function removeOrg(address _ethAddress) public isAdmin returns (bool) {\n        require(\n            organizations[_ethAddress].ethAddress == _ethAddress,\n            \"Org doesnt exist\"\n        );\n        delete organizations[_ethAddress];\n        emit Events.orgRemoved(_ethAddress);\n        return true;\n    }\n\n        //Return Organization Info if it exists\n    function viewOrg(\n        address _ethAddress\n    ) public view isAdmin returns (Organization memory) {\n        require(\n            organizations[_ethAddress].ethAddress == _ethAddress,\n            \"Org doesnt exist\"\n        );\n        return organizations[_ethAddress];\n    }\n\n\n}",
  "sourcePath": "/Users/obedovabor/Projects/kyc/contracts/Admin.sol",
  "compiler": {
    "name": "solc",
    "version": "0.8.7+commit.e28d00a7.Emscripten.clang"
  },
  "schemaVersion": "3.4.11",
  "updatedAt": "2023-03-25T12:24:17.734Z",
  "devdoc": {
    "kind": "dev",
    "methods": {},
    "version": 1
  },
  "userdoc": {
    "kind": "user",
    "methods": {},
    "version": 1
  }
}