{
  "contractName": "Cust",
  "abi": [
    {
      "anonymous": false,
      "inputs": [
        {
          "indexed": true,
          "internalType": "address",
          "name": "customerAddress",
          "type": "address"
        },
        {
          "indexed": true,
          "internalType": "address",
          "name": "orgAddress",
          "type": "address"
        },
        {
          "indexed": false,
          "internalType": "uint256",
          "name": "rating",
          "type": "uint256"
        }
      ],
      "name": "CustomerRated",
      "type": "event"
    },
    {
      "anonymous": false,
      "inputs": [
        {
          "indexed": false,
          "internalType": "uint256",
          "name": "reqid",
          "type": "uint256"
        },
        {
          "indexed": false,
          "internalType": "address",
          "name": "custAddress",
          "type": "address"
        },
        {
          "indexed": false,
          "internalType": "address",
          "name": "ethAddress",
          "type": "address"
        },
        {
          "indexed": false,
          "internalType": "bool",
          "name": "isAllowed",
          "type": "bool"
        }
      ],
      "name": "accessGiven",
      "type": "event"
    },
    {
      "anonymous": false,
      "inputs": [
        {
          "indexed": false,
          "internalType": "address",
          "name": "custAddress",
          "type": "address"
        },
        {
          "indexed": false,
          "internalType": "address",
          "name": "ethAddress",
          "type": "address"
        }
      ],
      "name": "accessRevoked",
      "type": "event"
    },
    {
      "anonymous": false,
      "inputs": [
        {
          "indexed": false,
          "internalType": "address",
          "name": "custAddress",
          "type": "address"
        },
        {
          "indexed": false,
          "internalType": "bool",
          "name": "kycStatus",
          "type": "bool"
        }
      ],
      "name": "customerAdded",
      "type": "event"
    },
    {
      "anonymous": false,
      "inputs": [
        {
          "indexed": false,
          "internalType": "address",
          "name": "custAddress",
          "type": "address"
        },
        {
          "indexed": false,
          "internalType": "bool",
          "name": "kycStatus",
          "type": "bool"
        }
      ],
      "name": "customerUpdated",
      "type": "event"
    },
    {
      "anonymous": false,
      "inputs": [
        {
          "indexed": false,
          "internalType": "address",
          "name": "custAddress",
          "type": "address"
        },
        {
          "indexed": false,
          "internalType": "address",
          "name": "ethAddress",
          "type": "address"
        }
      ],
      "name": "kycRemoved",
      "type": "event"
    },
    {
      "anonymous": false,
      "inputs": [
        {
          "indexed": false,
          "internalType": "string",
          "name": "name",
          "type": "string"
        },
        {
          "indexed": false,
          "internalType": "address",
          "name": "ethAddress",
          "type": "address"
        }
      ],
      "name": "orgAdded",
      "type": "event"
    },
    {
      "anonymous": false,
      "inputs": [
        {
          "indexed": false,
          "internalType": "address",
          "name": "ethAddress",
          "type": "address"
        }
      ],
      "name": "orgRemoved",
      "type": "event"
    },
    {
      "anonymous": false,
      "inputs": [
        {
          "indexed": false,
          "internalType": "uint256",
          "name": "reqid",
          "type": "uint256"
        },
        {
          "indexed": false,
          "internalType": "address",
          "name": "ethAddress",
          "type": "address"
        },
        {
          "indexed": false,
          "internalType": "address",
          "name": "custAddress",
          "type": "address"
        },
        {
          "indexed": false,
          "internalType": "bool",
          "name": "isAllowed",
          "type": "bool"
        }
      ],
      "name": "requestAdded",
      "type": "event"
    },
    {
      "anonymous": false,
      "inputs": [
        {
          "indexed": false,
          "internalType": "uint256",
          "name": "reqid",
          "type": "uint256"
        },
        {
          "indexed": false,
          "internalType": "address",
          "name": "ethAddress",
          "type": "address"
        }
      ],
      "name": "requestRemoved",
      "type": "event"
    },
    {
      "inputs": [],
      "name": "admin",
      "outputs": [
        {
          "internalType": "address",
          "name": "",
          "type": "address"
        }
      ],
      "stateMutability": "view",
      "type": "function"
    },
    {
      "inputs": [
        {
          "internalType": "address",
          "name": "",
          "type": "address"
        }
      ],
      "name": "customerRatings",
      "outputs": [
        {
          "internalType": "uint256",
          "name": "totalRating",
          "type": "uint256"
        },
        {
          "internalType": "uint256",
          "name": "numRatings",
          "type": "uint256"
        }
      ],
      "stateMutability": "view",
      "type": "function"
    },
    {
      "inputs": [
        {
          "internalType": "address",
          "name": "_custaddress",
          "type": "address"
        }
      ],
      "name": "requestKYC",
      "outputs": [
        {
          "internalType": "bool",
          "name": "",
          "type": "bool"
        }
      ],
      "stateMutability": "nonpayable",
      "type": "function"
    },
    {
      "inputs": [],
      "name": "validAdmin",
      "outputs": [
        {
          "internalType": "bool",
          "name": "",
          "type": "bool"
        }
      ],
      "stateMutability": "view",
      "type": "function"
    },
    {
      "inputs": [],
      "name": "validCust",
      "outputs": [
        {
          "internalType": "bool",
          "name": "",
          "type": "bool"
        }
      ],
      "stateMutability": "view",
      "type": "function"
    },
    {
      "inputs": [],
      "name": "viewYourKYC",
      "outputs": [
        {
          "components": [
            {
              "internalType": "address",
              "name": "custAddress",
              "type": "address"
            },
            {
              "internalType": "string",
              "name": "jsonHash",
              "type": "string"
            },
            {
              "internalType": "string",
              "name": "photoHash",
              "type": "string"
            },
            {
              "internalType": "string",
              "name": "citizenship_front_hash",
              "type": "string"
            },
            {
              "internalType": "string",
              "name": "citizenship_back_hash",
              "type": "string"
            },
            {
              "internalType": "uint256",
              "name": "d",
              "type": "uint256"
            },
            {
              "internalType": "uint256",
              "name": "n",
              "type": "uint256"
            },
            {
              "internalType": "address[]",
              "name": "organization",
              "type": "address[]"
            },
            {
              "internalType": "bool",
              "name": "kycStatus",
              "type": "bool"
            }
          ],
          "internalType": "struct Customer",
          "name": "",
          "type": "tuple"
        }
      ],
      "stateMutability": "view",
      "type": "function"
    },
    {
      "inputs": [],
      "name": "viewOrgWithAccess",
      "outputs": [
        {
          "internalType": "address[]",
          "name": "",
          "type": "address[]"
        }
      ],
      "stateMutability": "view",
      "type": "function"
    },
    {
      "inputs": [],
      "name": "viewRequestCust",
      "outputs": [
        {
          "components": [
            {
              "internalType": "uint256",
              "name": "req_count",
              "type": "uint256"
            },
            {
              "internalType": "address",
              "name": "Address",
              "type": "address"
            }
          ],
          "internalType": "struct kycRequestList[]",
          "name": "",
          "type": "tuple[]"
        }
      ],
      "stateMutability": "view",
      "type": "function"
    },
    {
      "inputs": [
        {
          "internalType": "uint256",
          "name": "_reqcount",
          "type": "uint256"
        },
        {
          "internalType": "address",
          "name": "_ethAddress",
          "type": "address"
        }
      ],
      "name": "deleteRequestCust",
      "outputs": [],
      "stateMutability": "nonpayable",
      "type": "function"
    },
    {
      "inputs": [],
      "name": "listRequest",
      "outputs": [
        {
          "components": [
            {
              "internalType": "uint256",
              "name": "req_count",
              "type": "uint256"
            },
            {
              "internalType": "address",
              "name": "Address",
              "type": "address"
            }
          ],
          "internalType": "struct kycRequestList[]",
          "name": "",
          "type": "tuple[]"
        }
      ],
      "stateMutability": "view",
      "type": "function"
    },
    {
      "inputs": [
        {
          "internalType": "uint256",
          "name": "_reqcount",
          "type": "uint256"
        },
        {
          "internalType": "address",
          "name": "_ethAddress",
          "type": "address"
        },
        {
          "internalType": "bool",
          "name": "_isAllowed",
          "type": "bool"
        }
      ],
      "name": "giveAccessKYC",
      "outputs": [
        {
          "internalType": "bool",
          "name": "",
          "type": "bool"
        }
      ],
      "stateMutability": "nonpayable",
      "type": "function"
    },
    {
      "inputs": [
        {
          "internalType": "address",
          "name": "_ethAddress",
          "type": "address"
        }
      ],
      "name": "revokeAccessKYC",
      "outputs": [
        {
          "internalType": "bool",
          "name": "",
          "type": "bool"
        }
      ],
      "stateMutability": "nonpayable",
      "type": "function"
    }
  ],
  "bytecode": "0x608060405234801561001057600080fd5b50611d1a806100206000396000f3fe608060405234801561001057600080fd5b50600436106100d45760003560e01c8063ceacabd511610081578063f3a9b5881161005b578063f3a9b5881461018b578063f6342c6f14610193578063f851a440146101cf57600080fd5b8063ceacabd514610166578063d6bbbf841461017b578063e1b2dbe81461018357600080fd5b80637042d70c116100b25780637042d70c14610129578063c10cebe61461013e578063ca1cbcc21461015157600080fd5b806306e5d4d1146100d95780632a539a22146101015780633b2b8abf14610114575b600080fd5b6100ec6100e7366004611962565b6101fa565b60405190151581526020015b60405180910390f35b6100ec61010f3660046119a9565b61035f565b61011c6105df565b6040516100f89190611a7f565b61013c61013736600461197d565b6106b6565b005b6100ec61014c366004611962565b610881565b610159610b3f565b6040516100f89190611acc565b61016e610cbc565b6040516100f89190611b24565b6100ec61106c565b6100ec61108c565b6101596110b5565b6101ba6101a1366004611962565b6001602081905260009182526040909120805491015482565b604080519283526020830191909152016100f8565b6000546101e2906001600160a01b031681565b6040516001600160a01b0390911681526020016100f8565b3360008181526002602052604081205490916001600160a01b039091161461028f5760405162461bcd60e51b815260206004820152602860248201527f596f7520646f6e74206861766520617574686f7269747920746f207265766f6b60448201527f652061636365737300000000000000000000000000000000000000000000000060648201526084015b60405180910390fd5b610299338361124b565b61030b5760405162461bcd60e51b815260206004820152602160248201527f596f7520646f6e7420686176652061636365737320746f20746869732075736560448201527f72000000000000000000000000000000000000000000000000000000000000006064820152608401610286565b61031533836112e7565b604080513381526001600160a01b03841660208201527fe88c41c4d37804e10d7ea8c3879578b372d9fabc7fd55f30843786e63b024bc991015b60405180910390a1506001919050565b3360008181526002602052604081205490916001600160a01b03909116146103ef5760405162461bcd60e51b815260206004820152602660248201527f596f7520646f6e74206861766520617574686f7269747920746f20676976652060448201527f61636365737300000000000000000000000000000000000000000000000000006064820152608401610286565b6001600160a01b038316600090815260046020526040902060020180543391908690811061041f5761041f611cb8565b60009182526020909120600160029092020101546001600160a01b0316146104895760405162461bcd60e51b815260206004820152600e60248201527f55736572206e6f742076616c69640000000000000000000000000000000000006044820152606401610286565b6001600160a01b03831660009081526004602052604090206002018054859190829081106104b9576104b9611cb8565b906000526020600020906002020160000154146105185760405162461bcd60e51b815260206004820152601260248201527f5265717565737473206e6f7420666f756e6400000000000000000000000000006044820152606401610286565b600182151514156105cb5761052d338461124b565b61056d573360009081526002602090815260408220600701805460018101825590835291200180546001600160a01b0319166001600160a01b0385161790555b61057784846106b6565b604080518581523360208201526001600160a01b03851681830152831515606082015290517fadbe7f03a7f299dc85504c5aa657355c0e4e2f199bae0b27c64e9cc810e699a99181900360800190a16105d5565b6105d584846106b6565b5060019392505050565b336000818152600260205260409020546060916001600160a01b039091161461064a5760405162461bcd60e51b815260206004820152601760248201527f596f7520646f6e74206861766520617574686f726974790000000000000000006044820152606401610286565b33600090815260026020908152604091829020600701805483518184028101840190945280845290918301828280156106ac57602002820191906000526020600020905b81546001600160a01b0316815260019091019060200180831161068e575b5050505050905090565b6001600160a01b03808216600081815260036020526040902060010154909116146107495760405162461bcd60e51b815260206004820152602a60248201527f5468697320706172746963756c6172206f7267616e697a6174696f6e7320646f60448201527f65736e74206578697374000000000000000000000000000000000000000000006064820152608401610286565b6001600160a01b038116600090815260046020526040902060020180543391908490811061077957610779611cb8565b60009182526020909120600160029092020101546001600160a01b0316146107e35760405162461bcd60e51b815260206004820152600e60248201527f55736572206e6f742076616c69640000000000000000000000000000000000006044820152606401610286565b6001600160a01b038116600090815260046020526040902060020180548391908290811061081357610813611cb8565b906000526020600020906002020160000154146108725760405162461bcd60e51b815260206004820152601460248201527f5265717565737420646f65736e742065786973740000000000000000000000006044820152606401610286565b61087d8233836113df565b5050565b3360008181526003602052604081206001015490916001600160a01b03909116146108ee5760405162461bcd60e51b815260206004820152600d60248201527f4f7267206e6f74206578697374000000000000000000000000000000000000006044820152606401610286565b6001600160a01b03808316600081815260026020526040902054909116146109585760405162461bcd60e51b815260206004820152601660248201527f437573746f6d657220646f65736e7420657869737473000000000000000000006044820152606401610286565b610962823361124b565b156109af5760405162461bcd60e51b815260206004820152601360248201527f416c7265616479206861766520616363657373000000000000000000000000006044820152606401610286565b6109b882611797565b15610a055760405162461bcd60e51b815260206004820152601660248201527f5265717565737420416c726561647920457869737473000000000000000000006044820152606401610286565b336000818152600460208181526040808420815180830183526001808301805483526001600160a01b038b8116848801818152600296870180548087018255908c52898c2096519088029096019586555194840180549583166001600160a01b03199687161790558952600587528589208651808801909752888852825487528688018b815281548086018355918b52888b20975191909602909601958655935194909101805494909316939091169290921790559383525281549190610acb83611c71565b90915550503360009081526004602052604090206001908101547f218ec21215c511260c909dd233fc0cb1190ef18c6eba8027742533695f40eaad91610b1091611c08565b604080519182523360208301526001600160a01b038516908201526000606082015260800161034f565b919050565b6060610b4961108c565b610b955760405162461bcd60e51b815260206004820152601260248201527f437573746f6d6572206e6f742076616c696400000000000000000000000000006044820152606401610286565b3360009081526005602052604081205467ffffffffffffffff811115610bbd57610bbd611cce565b604051908082528060200260200182016040528015610c0257816020015b6040805180820190915260008082526020820152815260200190600190039081610bdb5790505b5090506000805b33600090815260056020526040902054811015610cb457336000908152600560205260409020805482908110610c4157610c41611cb8565b60009182526020918290206040805180820190915260029092020180548252600101546001600160a01b0316918101919091528351849084908110610c8857610c88611cb8565b60200260200101819052508180610c9e90611c71565b9250508080610cac90611c71565b915050610c09565b509092915050565b610d1660405180610120016040528060006001600160a01b03168152602001606081526020016060815260200160608152602001606081526020016000815260200160008152602001606081526020016000151581525090565b610d1e61108c565b610d6a5760405162461bcd60e51b815260206004820152601260248201527f437573746f6d6572206e6f742076616c696400000000000000000000000000006044820152606401610286565b336000908152600260209081526040918290208251610120810190935280546001600160a01b031683526001810180549192840191610da890611c36565b80601f0160208091040260200160405190810160405280929190818152602001828054610dd490611c36565b8015610e215780601f10610df657610100808354040283529160200191610e21565b820191906000526020600020905b815481529060010190602001808311610e0457829003601f168201915b50505050508152602001600282018054610e3a90611c36565b80601f0160208091040260200160405190810160405280929190818152602001828054610e6690611c36565b8015610eb35780601f10610e8857610100808354040283529160200191610eb3565b820191906000526020600020905b815481529060010190602001808311610e9657829003601f168201915b50505050508152602001600382018054610ecc90611c36565b80601f0160208091040260200160405190810160405280929190818152602001828054610ef890611c36565b8015610f455780601f10610f1a57610100808354040283529160200191610f45565b820191906000526020600020905b815481529060010190602001808311610f2857829003601f168201915b50505050508152602001600482018054610f5e90611c36565b80601f0160208091040260200160405190810160405280929190818152602001828054610f8a90611c36565b8015610fd75780601f10610fac57610100808354040283529160200191610fd7565b820191906000526020600020905b815481529060010190602001808311610fba57829003601f168201915b5050505050815260200160058201548152602001600682015481526020016007820180548060200260200160405190810160405280929190818152602001828054801561104d57602002820191906000526020600020905b81546001600160a01b0316815260019091019060200180831161102f575b50505091835250506008919091015460ff161515602090910152919050565b600080546001600160a01b03163314156110865750600190565b50600090565b3360008181526002602052604081205490916001600160a01b0390911614156110865750600190565b336000818152600360205260409020600101546060916001600160a01b03909116146111235760405162461bcd60e51b815260206004820152600d60248201527f4f7267206e6f74206578697374000000000000000000000000000000000000006044820152606401610286565b3360009081526004602052604081206001015467ffffffffffffffff81111561114e5761114e611cce565b60405190808252806020026020018201604052801561119357816020015b604080518082019091526000808252602082015281526020019060019003908161116c5790505b5090506000805b33600090815260046020526040902060010154811015610cb4573360009081526004602052604090206002018054829081106111d8576111d8611cb8565b60009182526020918290206040805180820190915260029092020180548252600101546001600160a01b031691810191909152835184908490811061121f5761121f611cb8565b6020026020010181905250818061123590611c71565b925050808061124390611c71565b91505061119a565b6000805b6001600160a01b0384166000908152600260205260409020600701548110156112db576001600160a01b038481166000908152600260205260409020600701805491851691839081106112a4576112a4611cb8565b6000918252602090912001546001600160a01b031614156112c95760019150506112e1565b806112d381611c71565b91505061124f565b60009150505b92915050565b60006112f3838361182c565b6001600160a01b038416600090815260026020526040902060070180549192509061132090600190611c08565b8154811061133057611330611cb8565b60009182526020808320909101546001600160a01b0386811684526002909252604090922060070180549190921691908390811061137057611370611cb8565b600091825260208083209190910180546001600160a01b0319166001600160a01b0394851617905591851681526002909152604090206007018054806113b8576113b8611ca2565b600082815260209020810160001990810180546001600160a01b0319169055019055505050565b60006113eb83836118be565b6001600160a01b038316600090815260046020526040902060020180549192509061141890600190611c08565b8154811061142857611428611cb8565b906000526020600020906002020160046000846001600160a01b03166001600160a01b03168152602001908152602001600020600201858154811061146f5761146f611cb8565b6000918252602080832084546002938402909101908155600194850154940180546001600160a01b0319166001600160a01b039586161790559285168252600490925260409020018054806114c6576114c6611ca2565b60008281526020808220600260001990940193840201828155600190810180546001600160a01b0319169055929093556001600160a01b0386168152600590925260409091208054909161151991611c08565b8154811061152957611529611cb8565b906000526020600020906002020160056000856001600160a01b03166001600160a01b03168152602001908152602001600020600001828154811061157057611570611cb8565b6000918252602080832084546002909302019182556001938401549390910180546001600160a01b0319166001600160a01b0394851617905591851681526005909152604090208054806115c6576115c6611ca2565b60008281526020808220600260001990940184810290910183815560010180546001600160a01b0319169055909355338152600490925260409091200154841480159061162e57506001600160a01b0382166000908152600460205260409020600190810154115b15611724576001600160a01b038216600090815260046020526040902060020180548591908290811061166357611663611cb8565b60009182526020808320600292830201939093556001600160a01b03851682526004909252604081209091018054869081106116a1576116a1611cb8565b60009182526020808320600160029093020191909101546001600160a01b0316808352600590915260409091205490915015611722576116e181846118be565b6001600160a01b0382166000908152600560205260409020805491935086918490811061171057611710611cb8565b60009182526020909120600290910201555b505b6001600160a01b038216600090815260046020526040812060010180549161174b83611c1f565b9091555050604080518581526001600160a01b03841660208201527f5bc31e521401c7e4fbe27cc8e953ddcd66ce6cc84d810d1850450e7964029d95910160405180910390a150505050565b6000805b336000908152600460205260409020600101548110156118235733600090815260046020526040902060020180546001600160a01b0385169190839081106117e5576117e5611cb8565b60009182526020909120600160029092020101546001600160a01b031614156118115750600192915050565b8061181b81611c71565b91505061179b565b50600092915050565b6000805b6001600160a01b0384166000908152600260205260409020600701548110156118b7576001600160a01b0384811660009081526002602052604090206007018054918516918390811061188557611885611cb8565b6000918252602090912001546001600160a01b031614156118a5576118b7565b806118af81611c71565b915050611830565b9392505050565b6000805b6001600160a01b0384166000908152600560205260409020548110156118b7576001600160a01b0384811660009081526005602052604090208054918516918390811061191157611911611cb8565b60009182526020909120600160029092020101546001600160a01b03161415611939576118b7565b8061194381611c71565b9150506118c2565b80356001600160a01b0381168114610b3a57600080fd5b60006020828403121561197457600080fd5b6118b78261194b565b6000806040838503121561199057600080fd5b823591506119a06020840161194b565b90509250929050565b6000806000606084860312156119be57600080fd5b833592506119ce6020850161194b565b9150604084013580151581146119e357600080fd5b809150509250925092565b600081518084526020808501945080840160005b83811015611a275781516001600160a01b031687529582019590820190600101611a02565b509495945050505050565b6000815180845260005b81811015611a5857602081850181015186830182015201611a3c565b81811115611a6a576000602083870101525b50601f01601f19169290920160200192915050565b6020808252825182820181905260009190848201906040850190845b81811015611ac05783516001600160a01b031683529284019291840191600101611a9b565b50909695505050505050565b602080825282518282018190526000919060409081850190868401855b82811015611b17578151805185528601516001600160a01b0316868501529284019290850190600101611ae9565b5091979650505050505050565b60208152611b3e6020820183516001600160a01b03169052565b60006020830151610120806040850152611b5c610140850183611a32565b91506040850151601f1980868503016060870152611b7a8483611a32565b93506060870151915080868503016080870152611b978483611a32565b935060808701519150808685030160a0870152611bb48483611a32565b935060a087015160c087015260c087015160e087015260e08701519150610100818786030181880152611be785846119ee565b94508088015192505050611bfe8286018215159052565b5090949350505050565b600082821015611c1a57611c1a611c8c565b500390565b600081611c2e57611c2e611c8c565b506000190190565b600181811c90821680611c4a57607f821691505b60208210811415611c6b57634e487b7160e01b600052602260045260246000fd5b50919050565b6000600019821415611c8557611c85611c8c565b5060010190565b634e487b7160e01b600052601160045260246000fd5b634e487b7160e01b600052603160045260246000fd5b634e487b7160e01b600052603260045260246000fd5b634e487b7160e01b600052604160045260246000fdfea2646970667358221220495dbccda8240673acb3e85a8bac77d98fa22a17cd5f98692ed7d6e386b0929764736f6c63430008070033",
  "immutableReferences": {},
  "source": "// SPDX-License-Identifier: MIT\npragma solidity >=0.4.22 <0.9.0;\n\nimport \"./Variables.sol\";\nimport \"./Modifiers.sol\";\nimport \"./Events.sol\";\nimport \"./Functions.sol\";\n\ncontract Cust is Variables, Modifiers,Events, Functions{\n        function viewYourKYC() public view returns (Customer memory) {\n        require(validCust(), \"Customer not valid\");\n        return customers[msg.sender];\n    }\n\n    function viewOrgWithAccess() public view returns (address[] memory) {\n        require(\n            customers[msg.sender].custAddress == msg.sender,\n            \"You dont have authority\"\n        );\n        return customers[msg.sender].organization;\n    }\n\n    function viewRequestCust() public view returns (kycRequestList[] memory) {\n        require(validCust(), \"Customer not valid\");\n        kycRequestList[] memory ret = new kycRequestList[](\n            kycrequestsbycust[msg.sender].kycrequestlist.length\n        );\n        uint j = 0;\n        for (\n            uint i = 0;\n            i < kycrequestsbycust[msg.sender].kycrequestlist.length;\n            i++\n        ) {\n            ret[j] = kycrequestsbycust[msg.sender].kycrequestlist[i];\n            j++;\n        }\n        return (ret);\n    }\n\n\n    //Delete User KYC Request after user provides access\n    function deleteRequestCust(uint _reqcount, address _ethAddress) public {\n        require(\n            organizations[_ethAddress].ethAddress == _ethAddress,\n            \"This particular organizations doesnt exist\"\n        );\n        require(\n            kycrequestsbyorg[_ethAddress].kycrequestlist[_reqcount].Address ==\n                msg.sender,\n            \"User not valid\"\n        );\n        require(\n            kycrequestsbyorg[_ethAddress].kycrequestlist[_reqcount].req_count ==\n                _reqcount,\n            \"Request doesnt exist\"\n        );\n        deleteRequest(_reqcount, msg.sender, _ethAddress);\n    }\n\n    //Return Array of all pending request of the orgs\n    function listRequest()\n        public\n        view\n        isOrgValid\n        returns (kycRequestList[] memory)\n    {\n        kycRequestList[] memory ret = new kycRequestList[](\n            kycrequestsbyorg[msg.sender].req_count\n        );\n        uint j = 0;\n        for (uint i = 0; i < kycrequestsbyorg[msg.sender].req_count; i++) {\n            ret[j] = kycrequestsbyorg[msg.sender].kycrequestlist[i];\n            j++;\n        }\n        return (ret);\n    }\n\n    //Give User KYC access to Org\n    function giveAccessKYC(\n        uint _reqcount,\n        address _ethAddress,\n        bool _isAllowed\n    ) public returns (bool) {\n        require(\n            customers[msg.sender].custAddress == msg.sender,\n            \"You dont have authority to give access\"\n        );\n        require(\n            kycrequestsbyorg[_ethAddress].kycrequestlist[_reqcount].Address ==\n                msg.sender,\n            \"User not valid\"\n        );\n        require(\n            kycrequestsbyorg[_ethAddress].kycrequestlist[_reqcount].req_count ==\n                _reqcount,\n            \"Requests not found\"\n        );\n        if (_isAllowed == true) {\n            if (findOrg(msg.sender, _ethAddress) == false) {\n                customers[msg.sender].organization.push(_ethAddress);\n            }\n            deleteRequestCust(_reqcount, _ethAddress);\n            emit Events.accessGiven(\n                _reqcount,\n                msg.sender,\n                _ethAddress,\n                _isAllowed\n            );\n        } else {\n            deleteRequestCust(_reqcount, _ethAddress);\n        }\n        return true;\n    }\n\n    //Revoke User KYC access of Orgs\n    function revokeAccessKYC(address _ethAddress) public returns (bool) {\n        require(\n            customers[msg.sender].custAddress == msg.sender,\n            \"You dont have authority to revoke access\"\n        );\n        require(\n            findOrg(msg.sender, _ethAddress),\n            \"You dont have access to this user\"\n        );\n        remove(msg.sender, _ethAddress);\n        emit Events.accessRevoked(msg.sender, _ethAddress);\n        return true;\n    }\n}",
  "sourcePath": "/Users/obedovabor/Projects/kyc/contracts/Cust.sol",
  "compiler": {
    "name": "solc",
    "version": "0.8.7+commit.e28d00a7.Emscripten.clang"
  },
  "schemaVersion": "3.4.11",
  "updatedAt": "2023-03-25T12:24:17.742Z",
  "devdoc": {
    "kind": "dev",
    "methods": {},
    "version": 1
  },
  "userdoc": {
    "kind": "user",
    "methods": {},
    "version": 1
  }
}