{
  "contractName": "Functions",
  "abi": [
    {
      "anonymous": false,
      "inputs": [
        {
          "indexed": true,
          "internalType": "address",
          "name": "customerAddress",
          "type": "address"
        },
        {
          "indexed": true,
          "internalType": "address",
          "name": "orgAddress",
          "type": "address"
        },
        {
          "indexed": false,
          "internalType": "uint256",
          "name": "rating",
          "type": "uint256"
        }
      ],
      "name": "CustomerRated",
      "type": "event"
    },
    {
      "anonymous": false,
      "inputs": [
        {
          "indexed": false,
          "internalType": "uint256",
          "name": "reqid",
          "type": "uint256"
        },
        {
          "indexed": false,
          "internalType": "address",
          "name": "custAddress",
          "type": "address"
        },
        {
          "indexed": false,
          "internalType": "address",
          "name": "ethAddress",
          "type": "address"
        },
        {
          "indexed": false,
          "internalType": "bool",
          "name": "isAllowed",
          "type": "bool"
        }
      ],
      "name": "accessGiven",
      "type": "event"
    },
    {
      "anonymous": false,
      "inputs": [
        {
          "indexed": false,
          "internalType": "address",
          "name": "custAddress",
          "type": "address"
        },
        {
          "indexed": false,
          "internalType": "address",
          "name": "ethAddress",
          "type": "address"
        }
      ],
      "name": "accessRevoked",
      "type": "event"
    },
    {
      "anonymous": false,
      "inputs": [
        {
          "indexed": false,
          "internalType": "address",
          "name": "custAddress",
          "type": "address"
        },
        {
          "indexed": false,
          "internalType": "bool",
          "name": "kycStatus",
          "type": "bool"
        }
      ],
      "name": "customerAdded",
      "type": "event"
    },
    {
      "anonymous": false,
      "inputs": [
        {
          "indexed": false,
          "internalType": "address",
          "name": "custAddress",
          "type": "address"
        },
        {
          "indexed": false,
          "internalType": "bool",
          "name": "kycStatus",
          "type": "bool"
        }
      ],
      "name": "customerUpdated",
      "type": "event"
    },
    {
      "anonymous": false,
      "inputs": [
        {
          "indexed": false,
          "internalType": "address",
          "name": "custAddress",
          "type": "address"
        },
        {
          "indexed": false,
          "internalType": "address",
          "name": "ethAddress",
          "type": "address"
        }
      ],
      "name": "kycRemoved",
      "type": "event"
    },
    {
      "anonymous": false,
      "inputs": [
        {
          "indexed": false,
          "internalType": "string",
          "name": "name",
          "type": "string"
        },
        {
          "indexed": false,
          "internalType": "address",
          "name": "ethAddress",
          "type": "address"
        }
      ],
      "name": "orgAdded",
      "type": "event"
    },
    {
      "anonymous": false,
      "inputs": [
        {
          "indexed": false,
          "internalType": "address",
          "name": "ethAddress",
          "type": "address"
        }
      ],
      "name": "orgRemoved",
      "type": "event"
    },
    {
      "anonymous": false,
      "inputs": [
        {
          "indexed": false,
          "internalType": "uint256",
          "name": "reqid",
          "type": "uint256"
        },
        {
          "indexed": false,
          "internalType": "address",
          "name": "ethAddress",
          "type": "address"
        },
        {
          "indexed": false,
          "internalType": "address",
          "name": "custAddress",
          "type": "address"
        },
        {
          "indexed": false,
          "internalType": "bool",
          "name": "isAllowed",
          "type": "bool"
        }
      ],
      "name": "requestAdded",
      "type": "event"
    },
    {
      "anonymous": false,
      "inputs": [
        {
          "indexed": false,
          "internalType": "uint256",
          "name": "reqid",
          "type": "uint256"
        },
        {
          "indexed": false,
          "internalType": "address",
          "name": "ethAddress",
          "type": "address"
        }
      ],
      "name": "requestRemoved",
      "type": "event"
    },
    {
      "inputs": [],
      "name": "admin",
      "outputs": [
        {
          "internalType": "address",
          "name": "",
          "type": "address"
        }
      ],
      "stateMutability": "view",
      "type": "function"
    },
    {
      "inputs": [
        {
          "internalType": "address",
          "name": "",
          "type": "address"
        }
      ],
      "name": "customerRatings",
      "outputs": [
        {
          "internalType": "uint256",
          "name": "totalRating",
          "type": "uint256"
        },
        {
          "internalType": "uint256",
          "name": "numRatings",
          "type": "uint256"
        }
      ],
      "stateMutability": "view",
      "type": "function"
    },
    {
      "inputs": [],
      "name": "validAdmin",
      "outputs": [
        {
          "internalType": "bool",
          "name": "",
          "type": "bool"
        }
      ],
      "stateMutability": "view",
      "type": "function"
    },
    {
      "inputs": [],
      "name": "validCust",
      "outputs": [
        {
          "internalType": "bool",
          "name": "",
          "type": "bool"
        }
      ],
      "stateMutability": "view",
      "type": "function"
    },
    {
      "inputs": [
        {
          "internalType": "address",
          "name": "_custaddress",
          "type": "address"
        }
      ],
      "name": "requestKYC",
      "outputs": [
        {
          "internalType": "bool",
          "name": "",
          "type": "bool"
        }
      ],
      "stateMutability": "nonpayable",
      "type": "function"
    }
  ],
  "bytecode": "0x608060405234801561001057600080fd5b5061062a806100206000396000f3fe608060405234801561001057600080fd5b50600436106100675760003560e01c8063e1b2dbe811610050578063e1b2dbe81461009c578063f6342c6f146100a4578063f851a440146100e057600080fd5b8063c10cebe61461006c578063d6bbbf8414610094575b600080fd5b61007f61007a366004610566565b61010b565b60405190151581526020015b60405180910390f35b61007f6103ec565b61007f61040c565b6100cb6100b2366004610566565b6001602081905260009182526040909120805491015482565b6040805192835260208301919091520161008b565b6000546100f3906001600160a01b031681565b6040516001600160a01b03909116815260200161008b565b3360008181526003602052604081206001015490916001600160a01b039091161461017d5760405162461bcd60e51b815260206004820152600d60248201527f4f7267206e6f742065786973740000000000000000000000000000000000000060448201526064015b60405180910390fd5b6001600160a01b03808316600081815260026020526040902054909116146101e75760405162461bcd60e51b815260206004820152601660248201527f437573746f6d657220646f65736e7420657869737473000000000000000000006044820152606401610174565b6101f18233610435565b1561023e5760405162461bcd60e51b815260206004820152601360248201527f416c7265616479206861766520616363657373000000000000000000000000006044820152606401610174565b610247826104d1565b156102945760405162461bcd60e51b815260206004820152601660248201527f5265717565737420416c726561647920457869737473000000000000000000006044820152606401610174565b336000818152600460208181526040808420815180830183526001808301805483526001600160a01b038b8116848801818152600296870180548087018255908c52898c2096519088029096019586555194840180549583167fffffffffffffffffffffffff00000000000000000000000000000000000000009687161790558952600587528589208651808801909752888852825487528688018b815281548086018355918b52888b20975191909602909601958655935194909101805494909316939091169290921790559383525281549190610372836105ad565b90915550503360009081526004602052604090206001908101547f218ec21215c511260c909dd233fc0cb1190ef18c6eba8027742533695f40eaad916103b791610596565b604080519182523360208301526001600160a01b038516908201526000606082015260800160405180910390a1506001919050565b600080546001600160a01b03163314156104065750600190565b50600090565b3360008181526002602052604081205490916001600160a01b0390911614156104065750600190565b6000805b6001600160a01b0384166000908152600260205260409020600701548110156104c5576001600160a01b0384811660009081526002602052604090206007018054918516918390811061048e5761048e6105de565b6000918252602090912001546001600160a01b031614156104b35760019150506104cb565b806104bd816105ad565b915050610439565b60009150505b92915050565b6000805b3360009081526004602052604090206001015481101561055d5733600090815260046020526040902060020180546001600160a01b03851691908390811061051f5761051f6105de565b60009182526020909120600160029092020101546001600160a01b0316141561054b5750600192915050565b80610555816105ad565b9150506104d5565b50600092915050565b60006020828403121561057857600080fd5b81356001600160a01b038116811461058f57600080fd5b9392505050565b6000828210156105a8576105a86105c8565b500390565b60006000198214156105c1576105c16105c8565b5060010190565b634e487b7160e01b600052601160045260246000fd5b634e487b7160e01b600052603260045260246000fdfea26469706673582212207945c39c24d8ee0865a05b5824258273d9d5a38865d5951aee0be1e33498e08064736f6c63430008070033",
  "immutableReferences": {},
  "source": "// SPDX-License-Identifier: MIT\npragma solidity >=0.4.22 <0.9.0;\n\nimport \"./Variables.sol\";\nimport \"./Modifiers.sol\";\nimport \"./Events.sol\";\n\ncontract Functions is Variables, Modifiers, Events {\n    function findRequestIndex(\n        address _custaddress,\n        address _ethAddress\n    ) internal view returns (uint) {\n        uint i = 0;\n        for (\n            i;\n            i < kycrequestsbycust[_custaddress].kycrequestlist.length;\n            i++\n        ) {\n            if (\n                kycrequestsbycust[_custaddress].kycrequestlist[i].Address ==\n                _ethAddress\n            ) {\n                break;\n            }\n        }\n        return i;\n    }\n\n    function validAdmin() public view returns (bool) {\n        if (admin == msg.sender) {\n            return true;\n        } else {\n            return false;\n        }\n    }\n\n    function validCust() public view returns (bool) {\n        if (customers[msg.sender].custAddress == msg.sender) {\n            return true;\n        } else {\n            return false;\n        }\n    }\n\n    function writeKYC(\n        address _custaddress,\n        string memory _jsonHash,\n        string memory _photohash,\n        string memory _citizenship_front_hash,\n        string memory _citizenship_back_hash,\n        bool _kycStatus,\n        uint _d,\n        uint _n\n    ) internal {\n        require(bytes(_jsonHash).length > 0);\n        require(bytes(_photohash).length > 0);\n        require(bytes(_citizenship_back_hash).length > 0);\n        require(bytes(_citizenship_front_hash).length > 0);\n        customers[_custaddress].custAddress = _custaddress;\n        customers[_custaddress].jsonHash = _jsonHash;\n        customers[_custaddress].photoHash = _photohash;\n        customers[_custaddress]\n            .citizenship_front_hash = _citizenship_front_hash;\n        customers[_custaddress].citizenship_back_hash = _citizenship_back_hash;\n        customers[_custaddress].kycStatus = _kycStatus;\n        customers[_custaddress].d = _d;\n        customers[_custaddress].n = _n;\n        kycrequestsbycust[_custaddress].custAddress = _custaddress;\n    }\n\n    //Check if Org has access to the user KYC\n    function findOrg(\n        address _custaddress,\n        address ethAddress\n    ) internal view returns (bool) {\n        uint i = 0;\n        for (i; i < customers[_custaddress].organization.length; i++) {\n            if (customers[_custaddress].organization[i] == ethAddress) {\n                return true;\n            }\n        }\n        return false;\n    }\n\n    //Check if request exist\n    function findRequest(address _custaddress) internal view returns (bool) {\n        uint i = 0;\n        for (i; i < kycrequestsbyorg[msg.sender].req_count; i++) {\n            if (\n                kycrequestsbyorg[msg.sender].kycrequestlist[i].Address ==\n                _custaddress\n            ) {\n                return true;\n            }\n        }\n        return false;\n    }\n\n    function requestKYC(address _custaddress) public isOrgValid returns (bool) {\n        require(\n            customers[_custaddress].custAddress == _custaddress,\n            \"Customer doesnt exists\"\n        );\n        require(\n            findOrg(_custaddress, msg.sender) == false,\n            \"Already have access\"\n        );\n        require(findRequest(_custaddress) == false, \"Request Already Exists\");\n        kycrequestsbyorg[msg.sender].kycrequestlist.push(\n            kycRequestList(kycrequestsbyorg[msg.sender].req_count, _custaddress)\n        );\n        kycrequestsbycust[_custaddress].kycrequestlist.push(\n            kycRequestList(kycrequestsbyorg[msg.sender].req_count, msg.sender)\n        );\n        kycrequestsbyorg[msg.sender].req_count++;\n        emit Events.requestAdded(\n            kycrequestsbyorg[msg.sender].req_count - 1,\n            msg.sender,\n            _custaddress,\n            false\n        );\n        return true;\n    }\n\n    function deleteRequest(\n        uint _reqcount,\n        address _custaddress,\n        address _ethAddress\n    ) internal {\n        uint index = findRequestIndex(_custaddress, _ethAddress);\n        kycrequestsbyorg[_ethAddress].kycrequestlist[\n            _reqcount\n        ] = kycrequestsbyorg[_ethAddress].kycrequestlist[\n            kycrequestsbyorg[_ethAddress].kycrequestlist.length - 1\n        ];\n        kycrequestsbyorg[_ethAddress].kycrequestlist.pop();\n        kycrequestsbycust[_custaddress].kycrequestlist[\n            index\n        ] = kycrequestsbycust[_custaddress].kycrequestlist[\n            kycrequestsbycust[_custaddress].kycrequestlist.length - 1\n        ];\n        kycrequestsbycust[_custaddress].kycrequestlist.pop();\n        if (\n            kycrequestsbyorg[msg.sender].kycrequestlist.length != _reqcount &&\n            kycrequestsbyorg[_ethAddress].req_count > 1\n        ) {\n            kycrequestsbyorg[_ethAddress]\n                .kycrequestlist[_reqcount]\n                .req_count = _reqcount;\n            address add = kycrequestsbyorg[_ethAddress]\n                .kycrequestlist[_reqcount]\n                .Address;\n            if (kycrequestsbycust[add].kycrequestlist.length > 0) {\n                index = findRequestIndex(add, _ethAddress);\n                kycrequestsbycust[add]\n                    .kycrequestlist[index]\n                    .req_count = _reqcount;\n            }\n        }\n        kycrequestsbyorg[_ethAddress].req_count--;\n        emit Events.requestRemoved(_reqcount, _ethAddress);\n    }\n\n    function remove(address _custaddress, address _ethAddress) internal {\n        uint i = findOrgIndex(_custaddress, _ethAddress);\n        customers[_custaddress].organization[i] = customers[_custaddress]\n            .organization[customers[_custaddress].organization.length - 1];\n        customers[_custaddress].organization.pop();\n    }\n\n    function findOrgIndex(\n        address _custaddress,\n        address ethAddress\n    ) internal view returns (uint) {\n        uint i = 0;\n        for (i; i < customers[_custaddress].organization.length; i++) {\n            if (customers[_custaddress].organization[i] == ethAddress) {\n                break;\n            }\n        }\n        return i;\n    }\n}\n",
  "sourcePath": "/Users/obedovabor/Projects/kyc/contracts/Functions.sol",
  "compiler": {
    "name": "solc",
    "version": "0.8.7+commit.e28d00a7.Emscripten.clang"
  },
  "schemaVersion": "3.4.11",
  "updatedAt": "2023-03-25T12:24:17.753Z",
  "devdoc": {
    "kind": "dev",
    "methods": {},
    "version": 1
  },
  "userdoc": {
    "kind": "user",
    "methods": {},
    "version": 1
  }
}