{
  "contractName": "Kyc",
  "abi": [
    {
      "inputs": [],
      "stateMutability": "nonpayable",
      "type": "constructor"
    },
    {
      "anonymous": false,
      "inputs": [
        {
          "indexed": true,
          "internalType": "address",
          "name": "customerAddress",
          "type": "address"
        },
        {
          "indexed": true,
          "internalType": "address",
          "name": "orgAddress",
          "type": "address"
        },
        {
          "indexed": false,
          "internalType": "uint256",
          "name": "rating",
          "type": "uint256"
        }
      ],
      "name": "CustomerRated",
      "type": "event"
    },
    {
      "anonymous": false,
      "inputs": [
        {
          "indexed": false,
          "internalType": "uint256",
          "name": "reqid",
          "type": "uint256"
        },
        {
          "indexed": false,
          "internalType": "address",
          "name": "custAddress",
          "type": "address"
        },
        {
          "indexed": false,
          "internalType": "address",
          "name": "ethAddress",
          "type": "address"
        },
        {
          "indexed": false,
          "internalType": "bool",
          "name": "isAllowed",
          "type": "bool"
        }
      ],
      "name": "accessGiven",
      "type": "event"
    },
    {
      "anonymous": false,
      "inputs": [
        {
          "indexed": false,
          "internalType": "address",
          "name": "custAddress",
          "type": "address"
        },
        {
          "indexed": false,
          "internalType": "address",
          "name": "ethAddress",
          "type": "address"
        }
      ],
      "name": "accessRevoked",
      "type": "event"
    },
    {
      "anonymous": false,
      "inputs": [
        {
          "indexed": false,
          "internalType": "address",
          "name": "custAddress",
          "type": "address"
        },
        {
          "indexed": false,
          "internalType": "bool",
          "name": "kycStatus",
          "type": "bool"
        }
      ],
      "name": "customerAdded",
      "type": "event"
    },
    {
      "anonymous": false,
      "inputs": [
        {
          "indexed": false,
          "internalType": "address",
          "name": "custAddress",
          "type": "address"
        },
        {
          "indexed": false,
          "internalType": "bool",
          "name": "kycStatus",
          "type": "bool"
        }
      ],
      "name": "customerUpdated",
      "type": "event"
    },
    {
      "anonymous": false,
      "inputs": [
        {
          "indexed": false,
          "internalType": "address",
          "name": "custAddress",
          "type": "address"
        },
        {
          "indexed": false,
          "internalType": "address",
          "name": "ethAddress",
          "type": "address"
        }
      ],
      "name": "kycRemoved",
      "type": "event"
    },
    {
      "anonymous": false,
      "inputs": [
        {
          "indexed": false,
          "internalType": "string",
          "name": "name",
          "type": "string"
        },
        {
          "indexed": false,
          "internalType": "address",
          "name": "ethAddress",
          "type": "address"
        }
      ],
      "name": "orgAdded",
      "type": "event"
    },
    {
      "anonymous": false,
      "inputs": [
        {
          "indexed": false,
          "internalType": "address",
          "name": "ethAddress",
          "type": "address"
        }
      ],
      "name": "orgRemoved",
      "type": "event"
    },
    {
      "anonymous": false,
      "inputs": [
        {
          "indexed": false,
          "internalType": "uint256",
          "name": "reqid",
          "type": "uint256"
        },
        {
          "indexed": false,
          "internalType": "address",
          "name": "ethAddress",
          "type": "address"
        },
        {
          "indexed": false,
          "internalType": "address",
          "name": "custAddress",
          "type": "address"
        },
        {
          "indexed": false,
          "internalType": "bool",
          "name": "isAllowed",
          "type": "bool"
        }
      ],
      "name": "requestAdded",
      "type": "event"
    },
    {
      "anonymous": false,
      "inputs": [
        {
          "indexed": false,
          "internalType": "uint256",
          "name": "reqid",
          "type": "uint256"
        },
        {
          "indexed": false,
          "internalType": "address",
          "name": "ethAddress",
          "type": "address"
        }
      ],
      "name": "requestRemoved",
      "type": "event"
    },
    {
      "inputs": [
        {
          "internalType": "string",
          "name": "_name",
          "type": "string"
        },
        {
          "internalType": "address",
          "name": "_ethAddress",
          "type": "address"
        }
      ],
      "name": "addOrg",
      "outputs": [
        {
          "internalType": "bool",
          "name": "",
          "type": "bool"
        }
      ],
      "stateMutability": "nonpayable",
      "type": "function"
    },
    {
      "inputs": [],
      "name": "admin",
      "outputs": [
        {
          "internalType": "address",
          "name": "",
          "type": "address"
        }
      ],
      "stateMutability": "view",
      "type": "function",
      "constant": true
    },
    {
      "inputs": [
        {
          "internalType": "address",
          "name": "",
          "type": "address"
        }
      ],
      "name": "customerRatings",
      "outputs": [
        {
          "internalType": "uint256",
          "name": "totalRating",
          "type": "uint256"
        },
        {
          "internalType": "uint256",
          "name": "numRatings",
          "type": "uint256"
        }
      ],
      "stateMutability": "view",
      "type": "function",
      "constant": true
    },
    {
      "inputs": [
        {
          "internalType": "uint256",
          "name": "_reqcount",
          "type": "uint256"
        },
        {
          "internalType": "address",
          "name": "_ethAddress",
          "type": "address"
        }
      ],
      "name": "deleteRequestCust",
      "outputs": [],
      "stateMutability": "nonpayable",
      "type": "function"
    },
    {
      "inputs": [
        {
          "internalType": "uint256",
          "name": "_reqcount",
          "type": "uint256"
        }
      ],
      "name": "deleteRequestOrg",
      "outputs": [
        {
          "internalType": "bool",
          "name": "",
          "type": "bool"
        }
      ],
      "stateMutability": "nonpayable",
      "type": "function"
    },
    {
      "inputs": [
        {
          "internalType": "address",
          "name": "_custaddress",
          "type": "address"
        }
      ],
      "name": "getCustomerRating",
      "outputs": [
        {
          "internalType": "uint256",
          "name": "",
          "type": "uint256"
        }
      ],
      "stateMutability": "view",
      "type": "function",
      "constant": true
    },
    {
      "inputs": [],
      "name": "getYourOrgDetail",
      "outputs": [
        {
          "components": [
            {
              "internalType": "string",
              "name": "name",
              "type": "string"
            },
            {
              "internalType": "address",
              "name": "ethAddress",
              "type": "address"
            }
          ],
          "internalType": "struct Organization",
          "name": "",
          "type": "tuple"
        }
      ],
      "stateMutability": "view",
      "type": "function",
      "constant": true
    },
    {
      "inputs": [
        {
          "internalType": "uint256",
          "name": "_reqcount",
          "type": "uint256"
        },
        {
          "internalType": "address",
          "name": "_ethAddress",
          "type": "address"
        },
        {
          "internalType": "bool",
          "name": "_isAllowed",
          "type": "bool"
        }
      ],
      "name": "giveAccessKYC",
      "outputs": [
        {
          "internalType": "bool",
          "name": "",
          "type": "bool"
        }
      ],
      "stateMutability": "nonpayable",
      "type": "function"
    },
    {
      "inputs": [],
      "name": "listRequest",
      "outputs": [
        {
          "components": [
            {
              "internalType": "uint256",
              "name": "req_count",
              "type": "uint256"
            },
            {
              "internalType": "address",
              "name": "Address",
              "type": "address"
            }
          ],
          "internalType": "struct kycRequestList[]",
          "name": "",
          "type": "tuple[]"
        }
      ],
      "stateMutability": "view",
      "type": "function",
      "constant": true
    },
    {
      "inputs": [
        {
          "internalType": "address",
          "name": "_custaddress",
          "type": "address"
        },
        {
          "internalType": "uint256",
          "name": "_rating",
          "type": "uint256"
        }
      ],
      "name": "rateCustomer",
      "outputs": [],
      "stateMutability": "nonpayable",
      "type": "function"
    },
    {
      "inputs": [
        {
          "internalType": "address",
          "name": "_custaddress",
          "type": "address"
        },
        {
          "internalType": "string",
          "name": "_jsonHash",
          "type": "string"
        },
        {
          "internalType": "string",
          "name": "_photohash",
          "type": "string"
        },
        {
          "internalType": "string",
          "name": "_citizenship_front_hash",
          "type": "string"
        },
        {
          "internalType": "string",
          "name": "_citizenship_back_hash",
          "type": "string"
        },
        {
          "internalType": "bool",
          "name": "_kycStatus",
          "type": "bool"
        },
        {
          "internalType": "uint256",
          "name": "_d",
          "type": "uint256"
        },
        {
          "internalType": "uint256",
          "name": "_n",
          "type": "uint256"
        }
      ],
      "name": "registerKYC",
      "outputs": [
        {
          "internalType": "bool",
          "name": "",
          "type": "bool"
        }
      ],
      "stateMutability": "nonpayable",
      "type": "function"
    },
    {
      "inputs": [
        {
          "internalType": "address",
          "name": "_custaddress",
          "type": "address"
        }
      ],
      "name": "removeKYC",
      "outputs": [
        {
          "internalType": "bool",
          "name": "",
          "type": "bool"
        }
      ],
      "stateMutability": "nonpayable",
      "type": "function"
    },
    {
      "inputs": [
        {
          "internalType": "address",
          "name": "_ethAddress",
          "type": "address"
        }
      ],
      "name": "removeOrg",
      "outputs": [
        {
          "internalType": "bool",
          "name": "",
          "type": "bool"
        }
      ],
      "stateMutability": "nonpayable",
      "type": "function"
    },
    {
      "inputs": [
        {
          "internalType": "address",
          "name": "_custaddress",
          "type": "address"
        }
      ],
      "name": "requestKYC",
      "outputs": [
        {
          "internalType": "bool",
          "name": "",
          "type": "bool"
        }
      ],
      "stateMutability": "nonpayable",
      "type": "function"
    },
    {
      "inputs": [
        {
          "internalType": "address",
          "name": "_ethAddress",
          "type": "address"
        }
      ],
      "name": "revokeAccessKYC",
      "outputs": [
        {
          "internalType": "bool",
          "name": "",
          "type": "bool"
        }
      ],
      "stateMutability": "nonpayable",
      "type": "function"
    },
    {
      "inputs": [
        {
          "internalType": "address",
          "name": "_custaddress",
          "type": "address"
        },
        {
          "internalType": "string",
          "name": "_jsonHash",
          "type": "string"
        },
        {
          "internalType": "string",
          "name": "_photohash",
          "type": "string"
        },
        {
          "internalType": "string",
          "name": "_citizenship_front_hash",
          "type": "string"
        },
        {
          "internalType": "string",
          "name": "_citizenship_back_hash",
          "type": "string"
        },
        {
          "internalType": "bool",
          "name": "_kycStatus",
          "type": "bool"
        },
        {
          "internalType": "uint256",
          "name": "_d",
          "type": "uint256"
        },
        {
          "internalType": "uint256",
          "name": "_n",
          "type": "uint256"
        }
      ],
      "name": "updateKYC",
      "outputs": [
        {
          "internalType": "bool",
          "name": "",
          "type": "bool"
        }
      ],
      "stateMutability": "nonpayable",
      "type": "function"
    },
    {
      "inputs": [],
      "name": "validAdmin",
      "outputs": [
        {
          "internalType": "bool",
          "name": "",
          "type": "bool"
        }
      ],
      "stateMutability": "view",
      "type": "function",
      "constant": true
    },
    {
      "inputs": [],
      "name": "validCust",
      "outputs": [
        {
          "internalType": "bool",
          "name": "",
          "type": "bool"
        }
      ],
      "stateMutability": "view",
      "type": "function",
      "constant": true
    },
    {
      "inputs": [],
      "name": "validOrg",
      "outputs": [
        {
          "internalType": "bool",
          "name": "",
          "type": "bool"
        }
      ],
      "stateMutability": "view",
      "type": "function",
      "constant": true
    },
    {
      "inputs": [
        {
          "internalType": "address",
          "name": "_custaddress",
          "type": "address"
        }
      ],
      "name": "viewKYC",
      "outputs": [
        {
          "internalType": "bool",
          "name": "",
          "type": "bool"
        },
        {
          "internalType": "string",
          "name": "",
          "type": "string"
        },
        {
          "internalType": "string",
          "name": "",
          "type": "string"
        },
        {
          "internalType": "string",
          "name": "",
          "type": "string"
        },
        {
          "internalType": "string",
          "name": "",
          "type": "string"
        },
        {
          "internalType": "uint256",
          "name": "",
          "type": "uint256"
        },
        {
          "internalType": "uint256",
          "name": "",
          "type": "uint256"
        }
      ],
      "stateMutability": "view",
      "type": "function",
      "constant": true
    },
    {
      "inputs": [
        {
          "internalType": "address",
          "name": "_ethAddress",
          "type": "address"
        }
      ],
      "name": "viewOrg",
      "outputs": [
        {
          "components": [
            {
              "internalType": "string",
              "name": "name",
              "type": "string"
            },
            {
              "internalType": "address",
              "name": "ethAddress",
              "type": "address"
            }
          ],
          "internalType": "struct Organization",
          "name": "",
          "type": "tuple"
        }
      ],
      "stateMutability": "view",
      "type": "function",
      "constant": true
    },
    {
      "inputs": [],
      "name": "viewOrgWithAccess",
      "outputs": [
        {
          "internalType": "address[]",
          "name": "",
          "type": "address[]"
        }
      ],
      "stateMutability": "view",
      "type": "function",
      "constant": true
    },
    {
      "inputs": [],
      "name": "viewRequestCust",
      "outputs": [
        {
          "components": [
            {
              "internalType": "uint256",
              "name": "req_count",
              "type": "uint256"
            },
            {
              "internalType": "address",
              "name": "Address",
              "type": "address"
            }
          ],
          "internalType": "struct kycRequestList[]",
          "name": "",
          "type": "tuple[]"
        }
      ],
      "stateMutability": "view",
      "type": "function",
      "constant": true
    },
    {
      "inputs": [],
      "name": "viewYourKYC",
      "outputs": [
        {
          "components": [
            {
              "internalType": "address",
              "name": "custAddress",
              "type": "address"
            },
            {
              "internalType": "string",
              "name": "jsonHash",
              "type": "string"
            },
            {
              "internalType": "string",
              "name": "photoHash",
              "type": "string"
            },
            {
              "internalType": "string",
              "name": "citizenship_front_hash",
              "type": "string"
            },
            {
              "internalType": "string",
              "name": "citizenship_back_hash",
              "type": "string"
            },
            {
              "internalType": "uint256",
              "name": "d",
              "type": "uint256"
            },
            {
              "internalType": "uint256",
              "name": "n",
              "type": "uint256"
            },
            {
              "internalType": "address[]",
              "name": "organization",
              "type": "address[]"
            },
            {
              "internalType": "bool",
              "name": "kycStatus",
              "type": "bool"
            }
          ],
          "internalType": "struct Customer",
          "name": "",
          "type": "tuple"
        }
      ],
      "stateMutability": "view",
      "type": "function",
      "constant": true
    }
  ],
  "bytecode": "0x608060405234801561001057600080fd5b50600080546001600160a01b03191633179055613579806100326000396000f3fe608060405234801561001057600080fd5b50600436106101985760003560e01c8063a1ac9e57116100e3578063d6bbbf841161008c578063f3a9b58811610066578063f3a9b5881461034b578063f6342c6f14610353578063f851a4401461038f57600080fd5b8063d6bbbf8414610315578063d9b18f041461031d578063e1b2dbe81461034357600080fd5b8063c10cebe6116100bd578063c10cebe6146102d8578063ca1cbcc2146102eb578063ceacabd51461030057600080fd5b8063a1ac9e571461029f578063a64266e7146102b2578063b7e4a42d146102c557600080fd5b8063542918241161014557806384f702ee1161011f57806384f702ee146102665780638616ac9c1461027957806388c4ce541461028c57600080fd5b8063542918241461021d57806358a10663146102305780637042d70c1461025157600080fd5b806332722a251161017657806332722a25146101eb5780633b2b8abf146102005780634f4b4f781461021557600080fd5b806306e5d4d11461019d578063243f6b58146101c55780632a539a22146101d8575b600080fd5b6101b06101ab366004612f54565b6103ba565b60405190151581526020015b60405180910390f35b6101b06101d3366004612f54565b610503565b6101b06101e6366004613105565b610677565b6101f36108f7565b6040516101bc91906133f2565b610208610a29565b6040516101bc91906131d2565b6101b0610b00565b6101b061022b3660046130c9565b610b32565b61024361023e366004612f54565b610cf8565b6040519081526020016101bc565b61026461025f3660046130e2565b610dbc565b005b6101b0610274366004612f6f565b610f87565b610264610287366004613051565b611111565b6101f361029a366004612f54565b611375565b6101b06102ad36600461307b565b61150c565b6101b06102c0366004612f6f565b61168d565b6101b06102d3366004612f54565b6117af565b6101b06102e6366004612f54565b6118d2565b6102f3611b7b565b6040516101bc919061321f565b610308611cf8565b6040516101bc919061330e565b6101b06120a8565b61033061032b366004612f54565b6120c2565b6040516101bc9796959493929190613277565b6101b06123b3565b6102f36123dc565b61037a610361366004612f54565b6001602081905260009182526040909120805491015482565b604080519283526020830191909152016101bc565b6000546103a2906001600160a01b031681565b6040516001600160a01b0390911681526020016101bc565b3360008181526002602052604081205490916001600160a01b039091161461044f5760405162461bcd60e51b815260206004820152602860248201527f596f7520646f6e74206861766520617574686f7269747920746f207265766f6b60448201527f652061636365737300000000000000000000000000000000000000000000000060648201526084015b60405180910390fd5b6104593383612562565b6104af5760405162461bcd60e51b815260206004820152602160248201527f596f7520646f6e7420686176652061636365737320746f2074686973207573656044820152603960f91b6064820152608401610446565b6104b933836125fc565b604080513381526001600160a01b03841660208201527fe88c41c4d37804e10d7ea8c3879578b372d9fabc7fd55f30843786e63b024bc991015b60405180910390a1506001919050565b3360008181526003602052604081206001015490916001600160a01b03909116146105605760405162461bcd60e51b815260206004820152600d60248201526c13dc99c81b9bdd08195e1a5cdd609a1b6044820152606401610446565b6001600160a01b03808316600081815260026020526040902054909116146105ca5760405162461bcd60e51b815260206004820152601260248201527f5573657220646f65736e277420657869737400000000000000000000000000006044820152606401610446565b6105d48233612562565b61062a5760405162461bcd60e51b815260206004820152602160248201527f596f7520646f6e7420686176652061636365737320746f2074686973207573656044820152603960f91b6064820152608401610446565b61063482336125fc565b604080516001600160a01b03841681523360208201527fd2bb631b9ffa2bf92c1b926be30d35e0753e89189734d361478d148ce3609ecd91016104f3565b919050565b3360008181526002602052604081205490916001600160a01b03909116146107075760405162461bcd60e51b815260206004820152602660248201527f596f7520646f6e74206861766520617574686f7269747920746f20676976652060448201527f61636365737300000000000000000000000000000000000000000000000000006064820152608401610446565b6001600160a01b038316600090815260046020526040902060020180543391908690811061073757610737613517565b60009182526020909120600160029092020101546001600160a01b0316146107a15760405162461bcd60e51b815260206004820152600e60248201527f55736572206e6f742076616c69640000000000000000000000000000000000006044820152606401610446565b6001600160a01b03831660009081526004602052604090206002018054859190829081106107d1576107d1613517565b906000526020600020906002020160000154146108305760405162461bcd60e51b815260206004820152601260248201527f5265717565737473206e6f7420666f756e6400000000000000000000000000006044820152606401610446565b600182151514156108e3576108453384612562565b610885573360009081526002602090815260408220600701805460018101825590835291200180546001600160a01b0319166001600160a01b0385161790555b61088f8484610dbc565b604080518581523360208201526001600160a01b03851681830152831515606082015290517fadbe7f03a7f299dc85504c5aa657355c0e4e2f199bae0b27c64e9cc810e699a99181900360800190a16108ed565b6108ed8484610dbc565b5060019392505050565b604080518082019091526060815260006020820152336000818152600360205260409020600101546001600160a01b0316146109655760405162461bcd60e51b815260206004820152600d60248201526c13dc99c81b9bdd08195e1a5cdd609a1b6044820152606401610446565b3360009081526003602052604090819020815180830190925280548290829061098d90613495565b80601f01602080910402602001604051908101604052809291908181526020018280546109b990613495565b8015610a065780601f106109db57610100808354040283529160200191610a06565b820191906000526020600020905b8154815290600101906020018083116109e957829003601f168201915b5050509183525050600191909101546001600160a01b0316602090910152905090565b336000818152600260205260409020546060916001600160a01b0390911614610a945760405162461bcd60e51b815260206004820152601760248201527f596f7520646f6e74206861766520617574686f726974790000000000000000006044820152606401610446565b3360009081526002602090815260409182902060070180548351818402810184019094528084529091830182828015610af657602002820191906000526020600020905b81546001600160a01b03168152600190910190602001808311610ad8575b5050505050905090565b3360008181526003602052604081206001015490916001600160a01b039091161415610b2c5750600190565b50600090565b3360008181526003602052604081206001015490916001600160a01b0390911614610b8f5760405162461bcd60e51b815260206004820152600d60248201526c13dc99c81b9bdd08195e1a5cdd609a1b6044820152606401610446565b336000818152600460205260409020546001600160a01b031614610c1b5760405162461bcd60e51b815260206004820152602160248201527f596f7520646f6e74206861766520617574686f7269747920746f2064656c657460448201527f65000000000000000000000000000000000000000000000000000000000000006064820152608401610446565b336000908152600460205260409020600201805483919082908110610c4257610c42613517565b90600052602060002090600202016000015414610ca15760405162461bcd60e51b815260206004820152601460248201527f5265717565737420646f65736e742065786973740000000000000000000000006044820152606401610446565b336000908152600460205260408120600201805484908110610cc557610cc5613517565b60009182526020909120600160029092020101546001600160a01b03169050610cef8382336126f4565b50600192915050565b6001600160a01b0380821660008181526002602052604081205490921614610d625760405162461bcd60e51b815260206004820152601260248201527f437573746f6d6572206e6f7420666f756e6400000000000000000000000000006044820152606401610446565b6001600160a01b03821660009081526001602081905260409091200154610d8b57506000919050565b6001600160a01b0382166000908152600160208190526040909120908101549054610db69190613445565b92915050565b6001600160a01b0380821660008181526003602052604090206001015490911614610e4f5760405162461bcd60e51b815260206004820152602a60248201527f5468697320706172746963756c6172206f7267616e697a6174696f6e7320646f60448201527f65736e74206578697374000000000000000000000000000000000000000000006064820152608401610446565b6001600160a01b0381166000908152600460205260409020600201805433919084908110610e7f57610e7f613517565b60009182526020909120600160029092020101546001600160a01b031614610ee95760405162461bcd60e51b815260206004820152600e60248201527f55736572206e6f742076616c69640000000000000000000000000000000000006044820152606401610446565b6001600160a01b0381166000908152600460205260409020600201805483919082908110610f1957610f19613517565b90600052602060002090600202016000015414610f785760405162461bcd60e51b815260206004820152601460248201527f5265717565737420646f65736e742065786973740000000000000000000000006044820152606401610446565b610f838233836126f4565b5050565b3360008181526003602052604081206001015490916001600160a01b0390911614610fe45760405162461bcd60e51b815260206004820152600d60248201526c13dc99c81b9bdd08195e1a5cdd609a1b6044820152606401610446565b6001600160a01b03808a166000818152600260205260409020549091161461104e5760405162461bcd60e51b815260206004820152601260248201527f5573657220646f65736e277420657869737400000000000000000000000000006044820152606401610446565b6110588933612562565b6110ae5760405162461bcd60e51b815260206004820152602160248201527f596f7520646f6e7420686176652061636365737320746f2074686973207573656044820152603960f91b6064820152608401610446565b6110be8989898989898989612aac565b604080516001600160a01b038b16815285151560208201527f0c14653fca65d1b22631a36a53bd2a7153579eb0180192d23b52babb69c2805091015b60405180910390a150600198975050505050505050565b336000818152600360205260409020600101546001600160a01b03161461116a5760405162461bcd60e51b815260206004820152600d60248201526c13dc99c81b9bdd08195e1a5cdd609a1b6044820152606401610446565b6001811015801561117c575060058111155b6111c85760405162461bcd60e51b815260206004820152600e60248201527f496e76616c696420726174696e670000000000000000000000000000000000006044820152606401610446565b6001600160a01b03808316600081815260026020526040902054909116146112325760405162461bcd60e51b815260206004820152601260248201527f437573746f6d6572206e6f7420666f756e6400000000000000000000000000006044820152606401610446565b6001600160a01b038216600090815260016020908152604080832033845260020190915290205460ff16156112a95760405162461bcd60e51b815260206004820152601b60248201527f416c7265616479207261746564207468697320637573746f6d657200000000006044820152606401610446565b6001600160a01b038216600090815260016020526040812080548392906112d190849061342d565b90915550506001600160a01b03821660009081526001602081905260408220810180549192909161130390849061342d565b90915550506001600160a01b0382166000818152600160208181526040808420338086526002909101835293819020805460ff191690931790925590518481529192917f29062425ffc9210a740456eb2d2e292e0bcbf72ea886ccc9a973e005ab4baca9910160405180910390a35050565b6040805180820190915260608152600060208201526000546001600160a01b031633146113d15760405162461bcd60e51b815260206004820152600a60248201526941646d696e206f6e6c7960b01b6044820152606401610446565b6001600160a01b038083166000818152600360205260409020600101549091161461143e5760405162461bcd60e51b815260206004820152601060248201527f4f726720646f65736e74206578697374000000000000000000000000000000006044820152606401610446565b6001600160a01b03821660009081526003602052604090819020815180830190925280548290829061146f90613495565b80601f016020809104026020016040519081016040528092919081815260200182805461149b90613495565b80156114e85780601f106114bd576101008083540402835291602001916114e8565b820191906000526020600020905b8154815290600101906020018083116114cb57829003601f168201915b5050509183525050600191909101546001600160a01b031660209091015292915050565b600080546001600160a01b031633146115545760405162461bcd60e51b815260206004820152600a60248201526941646d696e206f6e6c7960b01b6044820152606401610446565b6001600160a01b0380831660008181526003602052604090206001015490911614156115c25760405162461bcd60e51b815260206004820152601160248201527f4f726720616c72656164792061646465640000000000000000000000000000006044820152606401610446565b6040805180820182528481526001600160a01b038416602080830182905260009182526003815292902081518051929391926116019284920190612dca565b50602091820151600191820180546001600160a01b039283166001600160a01b03199182161790915590851660008181526004909452604080852080549093169091178255910191909155517f19cb05bcb9f3a5aa3801619041099231656235762a3599eed02cdcac38facd1c9061167c90859085906132e3565b60405180910390a150600192915050565b3360008181526003602052604081206001015490916001600160a01b03909116146116ea5760405162461bcd60e51b815260206004820152600d60248201526c13dc99c81b9bdd08195e1a5cdd609a1b6044820152606401610446565b6001600160a01b03808a1660008181526002602052604090205490911614156117555760405162461bcd60e51b815260206004820152601360248201527f5573657220616c726561647920657869737473000000000000000000000000006044820152606401610446565b6117658989898989898989612aac565b61176e896118d2565b50604080516001600160a01b038b16815285151560208201527f1d22f26dee56193a2da8b325a26e02b936d68be9f49c0a6f92534464aa8f2ecf91016110fa565b600080546001600160a01b031633146117f75760405162461bcd60e51b815260206004820152600a60248201526941646d696e206f6e6c7960b01b6044820152606401610446565b6001600160a01b03808316600081815260036020526040902060010154909116146118645760405162461bcd60e51b815260206004820152601060248201527f4f726720646f65736e74206578697374000000000000000000000000000000006044820152606401610446565b6001600160a01b0382166000908152600360205260408120906118878282612e4e565b5060010180546001600160a01b03191690556040516001600160a01b03831681527f4630061df51c52d44a3987b904c6ff220da2cbdeff03ce8750cd14652cae0c6c906020016104f3565b3360008181526003602052604081206001015490916001600160a01b039091161461192f5760405162461bcd60e51b815260206004820152600d60248201526c13dc99c81b9bdd08195e1a5cdd609a1b6044820152606401610446565b6001600160a01b03808316600081815260026020526040902054909116146119995760405162461bcd60e51b815260206004820152601660248201527f437573746f6d657220646f65736e7420657869737473000000000000000000006044820152606401610446565b6119a38233612562565b156119f05760405162461bcd60e51b815260206004820152601360248201527f416c7265616479206861766520616363657373000000000000000000000000006044820152606401610446565b6119f982612c16565b15611a465760405162461bcd60e51b815260206004820152601660248201527f5265717565737420416c726561647920457869737473000000000000000000006044820152606401610446565b336000818152600460208181526040808420815180830183526001808301805483526001600160a01b038b8116848801818152600296870180548087018255908c52898c2096519088029096019586555194840180549583166001600160a01b03199687161790558952600587528589208651808801909752888852825487528688018b815281548086018355918b52888b20975191909602909601958655935194909101805494909316939091169290921790559383525281549190611b0c836134d0565b90915550503360009081526004602052604090206001908101547f218ec21215c511260c909dd233fc0cb1190ef18c6eba8027742533695f40eaad91611b5191613467565b604080519182523360208301526001600160a01b03851690820152600060608201526080016104f3565b6060611b856123b3565b611bd15760405162461bcd60e51b815260206004820152601260248201527f437573746f6d6572206e6f742076616c696400000000000000000000000000006044820152606401610446565b3360009081526005602052604081205467ffffffffffffffff811115611bf957611bf961352d565b604051908082528060200260200182016040528015611c3e57816020015b6040805180820190915260008082526020820152815260200190600190039081611c175790505b5090506000805b33600090815260056020526040902054811015611cf057336000908152600560205260409020805482908110611c7d57611c7d613517565b60009182526020918290206040805180820190915260029092020180548252600101546001600160a01b0316918101919091528351849084908110611cc457611cc4613517565b60200260200101819052508180611cda906134d0565b9250508080611ce8906134d0565b915050611c45565b509092915050565b611d5260405180610120016040528060006001600160a01b03168152602001606081526020016060815260200160608152602001606081526020016000815260200160008152602001606081526020016000151581525090565b611d5a6123b3565b611da65760405162461bcd60e51b815260206004820152601260248201527f437573746f6d6572206e6f742076616c696400000000000000000000000000006044820152606401610446565b336000908152600260209081526040918290208251610120810190935280546001600160a01b031683526001810180549192840191611de490613495565b80601f0160208091040260200160405190810160405280929190818152602001828054611e1090613495565b8015611e5d5780601f10611e3257610100808354040283529160200191611e5d565b820191906000526020600020905b815481529060010190602001808311611e4057829003601f168201915b50505050508152602001600282018054611e7690613495565b80601f0160208091040260200160405190810160405280929190818152602001828054611ea290613495565b8015611eef5780601f10611ec457610100808354040283529160200191611eef565b820191906000526020600020905b815481529060010190602001808311611ed257829003601f168201915b50505050508152602001600382018054611f0890613495565b80601f0160208091040260200160405190810160405280929190818152602001828054611f3490613495565b8015611f815780601f10611f5657610100808354040283529160200191611f81565b820191906000526020600020905b815481529060010190602001808311611f6457829003601f168201915b50505050508152602001600482018054611f9a90613495565b80601f0160208091040260200160405190810160405280929190818152602001828054611fc690613495565b80156120135780601f10611fe857610100808354040283529160200191612013565b820191906000526020600020905b815481529060010190602001808311611ff657829003601f168201915b5050505050815260200160058201548152602001600682015481526020016007820180548060200260200160405190810160405280929190818152602001828054801561208957602002820191906000526020600020905b81546001600160a01b0316815260019091019060200180831161206b575b50505091835250506008919091015460ff161515602090910152919050565b600080546001600160a01b0316331415610b2c5750600190565b60006060806060806000806120d78833612562565b6121235760405162461bcd60e51b815260206004820152601e60248201527f55736572206861736e7420676976656e20746865697220636f6e73656e7400006044820152606401610446565b6001600160a01b038816600090815260026020819052604090912060088101546005820154600683015460018401805460ff90941695909490810193600382019360049092019290869061217690613495565b80601f01602080910402602001604051908101604052809291908181526020018280546121a290613495565b80156121ef5780601f106121c4576101008083540402835291602001916121ef565b820191906000526020600020905b8154815290600101906020018083116121d257829003601f168201915b5050505050955084805461220290613495565b80601f016020809104026020016040519081016040528092919081815260200182805461222e90613495565b801561227b5780601f106122505761010080835404028352916020019161227b565b820191906000526020600020905b81548152906001019060200180831161225e57829003601f168201915b5050505050945083805461228e90613495565b80601f01602080910402602001604051908101604052809291908181526020018280546122ba90613495565b80156123075780601f106122dc57610100808354040283529160200191612307565b820191906000526020600020905b8154815290600101906020018083116122ea57829003601f168201915b5050505050935082805461231a90613495565b80601f016020809104026020016040519081016040528092919081815260200182805461234690613495565b80156123935780601f1061236857610100808354040283529160200191612393565b820191906000526020600020905b81548152906001019060200180831161237657829003601f168201915b505050505092509650965096509650965096509650919395979092949650565b3360008181526002602052604081205490916001600160a01b039091161415610b2c5750600190565b336000818152600360205260409020600101546060916001600160a01b039091161461243a5760405162461bcd60e51b815260206004820152600d60248201526c13dc99c81b9bdd08195e1a5cdd609a1b6044820152606401610446565b3360009081526004602052604081206001015467ffffffffffffffff8111156124655761246561352d565b6040519080825280602002602001820160405280156124aa57816020015b60408051808201909152600080825260208201528152602001906001900390816124835790505b5090506000805b33600090815260046020526040902060010154811015611cf0573360009081526004602052604090206002018054829081106124ef576124ef613517565b60009182526020918290206040805180820190915260029092020180548252600101546001600160a01b031691810191909152835184908490811061253657612536613517565b6020026020010181905250818061254c906134d0565b925050808061255a906134d0565b9150506124b1565b6000805b6001600160a01b0384166000908152600260205260409020600701548110156125f2576001600160a01b038481166000908152600260205260409020600701805491851691839081106125bb576125bb613517565b6000918252602090912001546001600160a01b031614156125e0576001915050610db6565b806125ea816134d0565b915050612566565b5060009392505050565b60006126088383612cab565b6001600160a01b038416600090815260026020526040902060070180549192509061263590600190613467565b8154811061264557612645613517565b60009182526020808320909101546001600160a01b0386811684526002909252604090922060070180549190921691908390811061268557612685613517565b600091825260208083209190910180546001600160a01b0319166001600160a01b0394851617905591851681526002909152604090206007018054806126cd576126cd613501565b600082815260209020810160001990810180546001600160a01b0319169055019055505050565b60006127008383612d3d565b6001600160a01b038316600090815260046020526040902060020180549192509061272d90600190613467565b8154811061273d5761273d613517565b906000526020600020906002020160046000846001600160a01b03166001600160a01b03168152602001908152602001600020600201858154811061278457612784613517565b6000918252602080832084546002938402909101908155600194850154940180546001600160a01b0319166001600160a01b039586161790559285168252600490925260409020018054806127db576127db613501565b60008281526020808220600260001990940193840201828155600190810180546001600160a01b0319169055929093556001600160a01b0386168152600590925260409091208054909161282e91613467565b8154811061283e5761283e613517565b906000526020600020906002020160056000856001600160a01b03166001600160a01b03168152602001908152602001600020600001828154811061288557612885613517565b6000918252602080832084546002909302019182556001938401549390910180546001600160a01b0319166001600160a01b0394851617905591851681526005909152604090208054806128db576128db613501565b60008281526020808220600260001990940184810290910183815560010180546001600160a01b0319169055909355338152600490925260409091200154841480159061294357506001600160a01b0382166000908152600460205260409020600190810154115b15612a39576001600160a01b038216600090815260046020526040902060020180548591908290811061297857612978613517565b60009182526020808320600292830201939093556001600160a01b03851682526004909252604081209091018054869081106129b6576129b6613517565b60009182526020808320600160029093020191909101546001600160a01b0316808352600590915260409091205490915015612a37576129f68184612d3d565b6001600160a01b03821660009081526005602052604090208054919350869184908110612a2557612a25613517565b60009182526020909120600290910201555b505b6001600160a01b0382166000908152600460205260408120600101805491612a608361347e565b9091555050604080518581526001600160a01b03841660208201527f5bc31e521401c7e4fbe27cc8e953ddcd66ce6cc84d810d1850450e7964029d95910160405180910390a150505050565b6000875111612aba57600080fd5b6000865111612ac857600080fd5b6000845111612ad657600080fd5b6000855111612ae457600080fd5b6001600160a01b038816600081815260026020908152604090912080546001600160a01b03191690921782558851612b2292600101918a0190612dca565b506001600160a01b03881660009081526002602081815260409092208851612b5293919092019190890190612dca565b506001600160a01b03881660009081526002602090815260409091208651612b8292600390920191880190612dca565b506001600160a01b03881660009081526002602090815260409091208551612bb292600490920191870190612dca565b506001600160a01b0397909716600081815260026020908152604080832060088101805460ff191697151597909717909655600580870195909555600690950199909955919097522060010180546001600160a01b03191690951790945550505050565b6000805b33600090815260046020526040902060010154811015612ca25733600090815260046020526040902060020180546001600160a01b038516919083908110612c6457612c64613517565b60009182526020909120600160029092020101546001600160a01b03161415612c905750600192915050565b80612c9a816134d0565b915050612c1a565b50600092915050565b6000805b6001600160a01b038416600090815260026020526040902060070154811015612d36576001600160a01b03848116600090815260026020526040902060070180549185169183908110612d0457612d04613517565b6000918252602090912001546001600160a01b03161415612d2457612d36565b80612d2e816134d0565b915050612caf565b9392505050565b6000805b6001600160a01b038416600090815260056020526040902054811015612d36576001600160a01b03848116600090815260056020526040902080549185169183908110612d9057612d90613517565b60009182526020909120600160029092020101546001600160a01b03161415612db857612d36565b80612dc2816134d0565b915050612d41565b828054612dd690613495565b90600052602060002090601f016020900481019282612df85760008555612e3e565b82601f10612e1157805160ff1916838001178555612e3e565b82800160010185558215612e3e579182015b82811115612e3e578251825591602001919060010190612e23565b50612e4a929150612e8b565b5090565b508054612e5a90613495565b6000825580601f10612e6a575050565b601f016020900490600052602060002090810190612e889190612e8b565b50565b5b80821115612e4a5760008155600101612e8c565b80356001600160a01b038116811461067257600080fd5b8035801515811461067257600080fd5b600082601f830112612ed857600080fd5b813567ffffffffffffffff80821115612ef357612ef361352d565b604051601f8301601f19908116603f01168101908282118183101715612f1b57612f1b61352d565b81604052838152866020858801011115612f3457600080fd5b836020870160208301376000602085830101528094505050505092915050565b600060208284031215612f6657600080fd5b612d3682612ea0565b600080600080600080600080610100898b031215612f8c57600080fd5b612f9589612ea0565b9750602089013567ffffffffffffffff80821115612fb257600080fd5b612fbe8c838d01612ec7565b985060408b0135915080821115612fd457600080fd5b612fe08c838d01612ec7565b975060608b0135915080821115612ff657600080fd5b6130028c838d01612ec7565b965060808b013591508082111561301857600080fd5b506130258b828c01612ec7565b94505061303460a08a01612eb7565b925060c0890135915060e089013590509295985092959890939650565b6000806040838503121561306457600080fd5b61306d83612ea0565b946020939093013593505050565b6000806040838503121561308e57600080fd5b823567ffffffffffffffff8111156130a557600080fd5b6130b185828601612ec7565b9250506130c060208401612ea0565b90509250929050565b6000602082840312156130db57600080fd5b5035919050565b600080604083850312156130f557600080fd5b823591506130c060208401612ea0565b60008060006060848603121561311a57600080fd5b8335925061312a60208501612ea0565b915061313860408501612eb7565b90509250925092565b600081518084526020808501945080840160005b8381101561317a5781516001600160a01b031687529582019590820190600101613155565b509495945050505050565b6000815180845260005b818110156131ab5760208185018101518683018201520161318f565b818111156131bd576000602083870101525b50601f01601f19169290920160200192915050565b6020808252825182820181905260009190848201906040850190845b818110156132135783516001600160a01b0316835292840192918401916001016131ee565b50909695505050505050565b602080825282518282018190526000919060409081850190868401855b8281101561326a578151805185528601516001600160a01b031686850152928401929085019060010161323c565b5091979650505050505050565b871515815260e06020820152600061329260e0830189613185565b82810360408401526132a48189613185565b905082810360608401526132b88188613185565b905082810360808401526132cc8187613185565b60a0840195909552505060c0015295945050505050565b6040815260006132f66040830185613185565b90506001600160a01b03831660208301529392505050565b602081526133286020820183516001600160a01b03169052565b60006020830151610120806040850152613346610140850183613185565b91506040850151601f19808685030160608701526133648483613185565b935060608701519150808685030160808701526133818483613185565b935060808701519150808685030160a087015261339e8483613185565b935060a087015160c087015260c087015160e087015260e087015191506101008187860301818801526133d18584613141565b945080880151925050506133e88286018215159052565b5090949350505050565b60208152600082516040602084015261340e6060840182613185565b90506001600160a01b0360208501511660408401528091505092915050565b60008219821115613440576134406134eb565b500190565b60008261346257634e487b7160e01b600052601260045260246000fd5b500490565b600082821015613479576134796134eb565b500390565b60008161348d5761348d6134eb565b506000190190565b600181811c908216806134a957607f821691505b602082108114156134ca57634e487b7160e01b600052602260045260246000fd5b50919050565b60006000198214156134e4576134e46134eb565b5060010190565b634e487b7160e01b600052601160045260246000fd5b634e487b7160e01b600052603160045260246000fd5b634e487b7160e01b600052603260045260246000fd5b634e487b7160e01b600052604160045260246000fdfea2646970667358221220b98f81af57a4d918f11a97c715e51b557b31308a7e0ec6cfbd342d206c3570c564736f6c63430008070033",
  "immutableReferences": {},
  "source": "// SPDX-License-Identifier: MIT\npragma solidity >=0.4.22 <0.9.0;\nimport \"./Org.sol\";\nimport \"./Cust.sol\";\nimport \"./Admin.sol\";\n\ncontract Kyc is Org, Cust, Admin {\n\n    constructor() {\n        admin = msg.sender;\n    }\n\n}\n",
  "sourcePath": "/Users/obedovabor/Projects/kyc/contracts/Kyc.sol",
  "compiler": {
    "name": "solc",
    "version": "0.8.7+commit.e28d00a7.Emscripten.clang"
  },
  "schemaVersion": "3.4.11",
  "updatedAt": "2023-03-25T12:24:25.800Z",
  "networkType": "ethereum",
  "devdoc": {
    "kind": "dev",
    "methods": {},
    "version": 1
  },
  "userdoc": {
    "kind": "user",
    "methods": {},
    "version": 1
  }
}