{
  "contractName": "Modifiers",
  "abi": [
    {
      "inputs": [],
      "name": "admin",
      "outputs": [
        {
          "internalType": "address",
          "name": "",
          "type": "address"
        }
      ],
      "stateMutability": "view",
      "type": "function"
    },
    {
      "inputs": [
        {
          "internalType": "address",
          "name": "",
          "type": "address"
        }
      ],
      "name": "customerRatings",
      "outputs": [
        {
          "internalType": "uint256",
          "name": "totalRating",
          "type": "uint256"
        },
        {
          "internalType": "uint256",
          "name": "numRatings",
          "type": "uint256"
        }
      ],
      "stateMutability": "view",
      "type": "function"
    }
  ],
  "bytecode": "0x608060405234801561001057600080fd5b50610129806100206000396000f3fe6080604052348015600f57600080fd5b506004361060325760003560e01c8063f6342c6f146037578063f851a440146075575b600080fd5b605b604236600460b8565b6001602081905260009182526040909120805491015482565b604080519283526020830191909152015b60405180910390f35b60005460949073ffffffffffffffffffffffffffffffffffffffff1681565b60405173ffffffffffffffffffffffffffffffffffffffff9091168152602001606c565b60006020828403121560c957600080fd5b813573ffffffffffffffffffffffffffffffffffffffff8116811460ec57600080fd5b939250505056fea2646970667358221220f64f7ce1ca60178a2e858b46c70391f40b0eabefb0e065fdada9512f023ca7bc64736f6c63430008070033",
  "immutableReferences": {},
  "source": "// SPDX-License-Identifier: MIT\npragma solidity >=0.4.22 <0.9.0;\n\nimport \"./Variables.sol\";\n\n\ncontract Modifiers is Variables{\n    modifier isAdmin() {\n        require(admin == msg.sender, \"Admin only\");\n        _;\n    }\n\n    // Checks wheter the org exists or not\n    modifier isOrgValid() {\n        require(\n            organizations[msg.sender].ethAddress == msg.sender,\n            \"Org not exist\"\n        );\n        _;\n    }\n}",
  "sourcePath": "/Users/obedovabor/Projects/kyc/contracts/Modifiers.sol",
  "compiler": {
    "name": "solc",
    "version": "0.8.7+commit.e28d00a7.Emscripten.clang"
  },
  "schemaVersion": "3.4.11",
  "updatedAt": "2023-03-25T12:24:17.784Z",
  "devdoc": {
    "kind": "dev",
    "methods": {},
    "version": 1
  },
  "userdoc": {
    "kind": "user",
    "methods": {},
    "version": 1
  }
}