{
  "contractName": "Org",
  "abi": [
    {
      "anonymous": false,
      "inputs": [
        {
          "indexed": true,
          "internalType": "address",
          "name": "customerAddress",
          "type": "address"
        },
        {
          "indexed": true,
          "internalType": "address",
          "name": "orgAddress",
          "type": "address"
        },
        {
          "indexed": false,
          "internalType": "uint256",
          "name": "rating",
          "type": "uint256"
        }
      ],
      "name": "CustomerRated",
      "type": "event"
    },
    {
      "anonymous": false,
      "inputs": [
        {
          "indexed": false,
          "internalType": "uint256",
          "name": "reqid",
          "type": "uint256"
        },
        {
          "indexed": false,
          "internalType": "address",
          "name": "custAddress",
          "type": "address"
        },
        {
          "indexed": false,
          "internalType": "address",
          "name": "ethAddress",
          "type": "address"
        },
        {
          "indexed": false,
          "internalType": "bool",
          "name": "isAllowed",
          "type": "bool"
        }
      ],
      "name": "accessGiven",
      "type": "event"
    },
    {
      "anonymous": false,
      "inputs": [
        {
          "indexed": false,
          "internalType": "address",
          "name": "custAddress",
          "type": "address"
        },
        {
          "indexed": false,
          "internalType": "address",
          "name": "ethAddress",
          "type": "address"
        }
      ],
      "name": "accessRevoked",
      "type": "event"
    },
    {
      "anonymous": false,
      "inputs": [
        {
          "indexed": false,
          "internalType": "address",
          "name": "custAddress",
          "type": "address"
        },
        {
          "indexed": false,
          "internalType": "bool",
          "name": "kycStatus",
          "type": "bool"
        }
      ],
      "name": "customerAdded",
      "type": "event"
    },
    {
      "anonymous": false,
      "inputs": [
        {
          "indexed": false,
          "internalType": "address",
          "name": "custAddress",
          "type": "address"
        },
        {
          "indexed": false,
          "internalType": "bool",
          "name": "kycStatus",
          "type": "bool"
        }
      ],
      "name": "customerUpdated",
      "type": "event"
    },
    {
      "anonymous": false,
      "inputs": [
        {
          "indexed": false,
          "internalType": "address",
          "name": "custAddress",
          "type": "address"
        },
        {
          "indexed": false,
          "internalType": "address",
          "name": "ethAddress",
          "type": "address"
        }
      ],
      "name": "kycRemoved",
      "type": "event"
    },
    {
      "anonymous": false,
      "inputs": [
        {
          "indexed": false,
          "internalType": "string",
          "name": "name",
          "type": "string"
        },
        {
          "indexed": false,
          "internalType": "address",
          "name": "ethAddress",
          "type": "address"
        }
      ],
      "name": "orgAdded",
      "type": "event"
    },
    {
      "anonymous": false,
      "inputs": [
        {
          "indexed": false,
          "internalType": "address",
          "name": "ethAddress",
          "type": "address"
        }
      ],
      "name": "orgRemoved",
      "type": "event"
    },
    {
      "anonymous": false,
      "inputs": [
        {
          "indexed": false,
          "internalType": "uint256",
          "name": "reqid",
          "type": "uint256"
        },
        {
          "indexed": false,
          "internalType": "address",
          "name": "ethAddress",
          "type": "address"
        },
        {
          "indexed": false,
          "internalType": "address",
          "name": "custAddress",
          "type": "address"
        },
        {
          "indexed": false,
          "internalType": "bool",
          "name": "isAllowed",
          "type": "bool"
        }
      ],
      "name": "requestAdded",
      "type": "event"
    },
    {
      "anonymous": false,
      "inputs": [
        {
          "indexed": false,
          "internalType": "uint256",
          "name": "reqid",
          "type": "uint256"
        },
        {
          "indexed": false,
          "internalType": "address",
          "name": "ethAddress",
          "type": "address"
        }
      ],
      "name": "requestRemoved",
      "type": "event"
    },
    {
      "inputs": [],
      "name": "admin",
      "outputs": [
        {
          "internalType": "address",
          "name": "",
          "type": "address"
        }
      ],
      "stateMutability": "view",
      "type": "function"
    },
    {
      "inputs": [
        {
          "internalType": "address",
          "name": "",
          "type": "address"
        }
      ],
      "name": "customerRatings",
      "outputs": [
        {
          "internalType": "uint256",
          "name": "totalRating",
          "type": "uint256"
        },
        {
          "internalType": "uint256",
          "name": "numRatings",
          "type": "uint256"
        }
      ],
      "stateMutability": "view",
      "type": "function"
    },
    {
      "inputs": [
        {
          "internalType": "address",
          "name": "_custaddress",
          "type": "address"
        }
      ],
      "name": "requestKYC",
      "outputs": [
        {
          "internalType": "bool",
          "name": "",
          "type": "bool"
        }
      ],
      "stateMutability": "nonpayable",
      "type": "function"
    },
    {
      "inputs": [],
      "name": "validAdmin",
      "outputs": [
        {
          "internalType": "bool",
          "name": "",
          "type": "bool"
        }
      ],
      "stateMutability": "view",
      "type": "function"
    },
    {
      "inputs": [],
      "name": "validCust",
      "outputs": [
        {
          "internalType": "bool",
          "name": "",
          "type": "bool"
        }
      ],
      "stateMutability": "view",
      "type": "function"
    },
    {
      "inputs": [
        {
          "internalType": "address",
          "name": "_custaddress",
          "type": "address"
        },
        {
          "internalType": "string",
          "name": "_jsonHash",
          "type": "string"
        },
        {
          "internalType": "string",
          "name": "_photohash",
          "type": "string"
        },
        {
          "internalType": "string",
          "name": "_citizenship_front_hash",
          "type": "string"
        },
        {
          "internalType": "string",
          "name": "_citizenship_back_hash",
          "type": "string"
        },
        {
          "internalType": "bool",
          "name": "_kycStatus",
          "type": "bool"
        },
        {
          "internalType": "uint256",
          "name": "_d",
          "type": "uint256"
        },
        {
          "internalType": "uint256",
          "name": "_n",
          "type": "uint256"
        }
      ],
      "name": "registerKYC",
      "outputs": [
        {
          "internalType": "bool",
          "name": "",
          "type": "bool"
        }
      ],
      "stateMutability": "nonpayable",
      "type": "function"
    },
    {
      "inputs": [
        {
          "internalType": "address",
          "name": "_custaddress",
          "type": "address"
        },
        {
          "internalType": "uint256",
          "name": "_rating",
          "type": "uint256"
        }
      ],
      "name": "rateCustomer",
      "outputs": [],
      "stateMutability": "nonpayable",
      "type": "function"
    },
    {
      "inputs": [
        {
          "internalType": "address",
          "name": "_custaddress",
          "type": "address"
        }
      ],
      "name": "getCustomerRating",
      "outputs": [
        {
          "internalType": "uint256",
          "name": "",
          "type": "uint256"
        }
      ],
      "stateMutability": "view",
      "type": "function"
    },
    {
      "inputs": [
        {
          "internalType": "address",
          "name": "_custaddress",
          "type": "address"
        }
      ],
      "name": "viewKYC",
      "outputs": [
        {
          "internalType": "bool",
          "name": "",
          "type": "bool"
        },
        {
          "internalType": "string",
          "name": "",
          "type": "string"
        },
        {
          "internalType": "string",
          "name": "",
          "type": "string"
        },
        {
          "internalType": "string",
          "name": "",
          "type": "string"
        },
        {
          "internalType": "string",
          "name": "",
          "type": "string"
        },
        {
          "internalType": "uint256",
          "name": "",
          "type": "uint256"
        },
        {
          "internalType": "uint256",
          "name": "",
          "type": "uint256"
        }
      ],
      "stateMutability": "view",
      "type": "function"
    },
    {
      "inputs": [],
      "name": "validOrg",
      "outputs": [
        {
          "internalType": "bool",
          "name": "",
          "type": "bool"
        }
      ],
      "stateMutability": "view",
      "type": "function"
    },
    {
      "inputs": [],
      "name": "getYourOrgDetail",
      "outputs": [
        {
          "components": [
            {
              "internalType": "string",
              "name": "name",
              "type": "string"
            },
            {
              "internalType": "address",
              "name": "ethAddress",
              "type": "address"
            }
          ],
          "internalType": "struct Organization",
          "name": "",
          "type": "tuple"
        }
      ],
      "stateMutability": "view",
      "type": "function"
    },
    {
      "inputs": [
        {
          "internalType": "address",
          "name": "_custaddress",
          "type": "address"
        },
        {
          "internalType": "string",
          "name": "_jsonHash",
          "type": "string"
        },
        {
          "internalType": "string",
          "name": "_photohash",
          "type": "string"
        },
        {
          "internalType": "string",
          "name": "_citizenship_front_hash",
          "type": "string"
        },
        {
          "internalType": "string",
          "name": "_citizenship_back_hash",
          "type": "string"
        },
        {
          "internalType": "bool",
          "name": "_kycStatus",
          "type": "bool"
        },
        {
          "internalType": "uint256",
          "name": "_d",
          "type": "uint256"
        },
        {
          "internalType": "uint256",
          "name": "_n",
          "type": "uint256"
        }
      ],
      "name": "updateKYC",
      "outputs": [
        {
          "internalType": "bool",
          "name": "",
          "type": "bool"
        }
      ],
      "stateMutability": "nonpayable",
      "type": "function"
    },
    {
      "inputs": [
        {
          "internalType": "uint256",
          "name": "_reqcount",
          "type": "uint256"
        }
      ],
      "name": "deleteRequestOrg",
      "outputs": [
        {
          "internalType": "bool",
          "name": "",
          "type": "bool"
        }
      ],
      "stateMutability": "nonpayable",
      "type": "function"
    },
    {
      "inputs": [
        {
          "internalType": "address",
          "name": "_custaddress",
          "type": "address"
        }
      ],
      "name": "removeKYC",
      "outputs": [
        {
          "internalType": "bool",
          "name": "",
          "type": "bool"
        }
      ],
      "stateMutability": "nonpayable",
      "type": "function"
    }
  ],
  "bytecode": "0x608060405234801561001057600080fd5b50611fe4806100206000396000f3fe608060405234801561001057600080fd5b50600436106100ea5760003560e01c8063a64266e71161008c578063d9b18f0411610066578063d9b18f04146101be578063e1b2dbe8146101e4578063f6342c6f146101ec578063f851a4401461022857600080fd5b8063a64266e714610190578063c10cebe6146101a3578063d6bbbf84146101b657600080fd5b806354291824116100c8578063542918241461013457806358a106631461014757806384f702ee146101685780638616ac9c1461017b57600080fd5b8063243f6b58146100ef57806332722a25146101175780634f4b4f781461012c575b600080fd5b6101026100fd366004611c64565b610253565b60405190151581526020015b60405180910390f35b61011f6103d4565b60405161010e9190611e5d565b610102610506565b610102610142366004611d8b565b610538565b61015a610155366004611c64565b6106fe565b60405190815260200161010e565b610102610176366004611c7f565b6107c2565b61018e610189366004611d61565b61094c565b005b61010261019e366004611c7f565b610bb0565b6101026101b1366004611c64565b610cd2565b610102610f7b565b6101d16101cc366004611c64565b610f95565b60405161010e9796959493929190611df1565b610102611286565b6102136101fa366004611c64565b6001602081905260009182526040909120805491015482565b6040805192835260208301919091520161010e565b60005461023b906001600160a01b031681565b6040516001600160a01b03909116815260200161010e565b3360008181526003602052604081206001015490916001600160a01b03909116146102b55760405162461bcd60e51b815260206004820152600d60248201526c13dc99c81b9bdd08195e1a5cdd609a1b60448201526064015b60405180910390fd5b6001600160a01b038083166000818152600260205260409020549091161461031f5760405162461bcd60e51b815260206004820152601260248201527f5573657220646f65736e2774206578697374000000000000000000000000000060448201526064016102ac565b61032982336112af565b61037f5760405162461bcd60e51b815260206004820152602160248201527f596f7520646f6e7420686176652061636365737320746f2074686973207573656044820152603960f91b60648201526084016102ac565b6103898233611349565b604080516001600160a01b03841681523360208201527fd2bb631b9ffa2bf92c1b926be30d35e0753e89189734d361478d148ce3609ecd91015b60405180910390a15060015b919050565b604080518082019091526060815260006020820152336000818152600360205260409020600101546001600160a01b0316146104425760405162461bcd60e51b815260206004820152600d60248201526c13dc99c81b9bdd08195e1a5cdd609a1b60448201526064016102ac565b3360009081526003602052604090819020815180830190925280548290829061046a90611f00565b80601f016020809104026020016040519081016040528092919081815260200182805461049690611f00565b80156104e35780601f106104b8576101008083540402835291602001916104e3565b820191906000526020600020905b8154815290600101906020018083116104c657829003601f168201915b5050509183525050600191909101546001600160a01b0316602090910152905090565b3360008181526003602052604081206001015490916001600160a01b0390911614156105325750600190565b50600090565b3360008181526003602052604081206001015490916001600160a01b03909116146105955760405162461bcd60e51b815260206004820152600d60248201526c13dc99c81b9bdd08195e1a5cdd609a1b60448201526064016102ac565b336000818152600460205260409020546001600160a01b0316146106215760405162461bcd60e51b815260206004820152602160248201527f596f7520646f6e74206861766520617574686f7269747920746f2064656c657460448201527f650000000000000000000000000000000000000000000000000000000000000060648201526084016102ac565b33600090815260046020526040902060020180548391908290811061064857610648611f82565b906000526020600020906002020160000154146106a75760405162461bcd60e51b815260206004820152601460248201527f5265717565737420646f65736e7420657869737400000000000000000000000060448201526064016102ac565b3360009081526004602052604081206002018054849081106106cb576106cb611f82565b60009182526020909120600160029092020101546001600160a01b031690506106f5838233611441565b50600192915050565b6001600160a01b03808216600081815260026020526040812054909216146107685760405162461bcd60e51b815260206004820152601260248201527f437573746f6d6572206e6f7420666f756e64000000000000000000000000000060448201526064016102ac565b6001600160a01b0382166000908152600160208190526040909120015461079157506000919050565b6001600160a01b03821660009081526001602081905260409091209081015490546107bc9190611eb0565b92915050565b3360008181526003602052604081206001015490916001600160a01b039091161461081f5760405162461bcd60e51b815260206004820152600d60248201526c13dc99c81b9bdd08195e1a5cdd609a1b60448201526064016102ac565b6001600160a01b03808a16600081815260026020526040902054909116146108895760405162461bcd60e51b815260206004820152601260248201527f5573657220646f65736e2774206578697374000000000000000000000000000060448201526064016102ac565b61089389336112af565b6108e95760405162461bcd60e51b815260206004820152602160248201527f596f7520646f6e7420686176652061636365737320746f2074686973207573656044820152603960f91b60648201526084016102ac565b6108f989898989898989896117f9565b604080516001600160a01b038b16815285151560208201527f0c14653fca65d1b22631a36a53bd2a7153579eb0180192d23b52babb69c2805091015b60405180910390a150600198975050505050505050565b336000818152600360205260409020600101546001600160a01b0316146109a55760405162461bcd60e51b815260206004820152600d60248201526c13dc99c81b9bdd08195e1a5cdd609a1b60448201526064016102ac565b600181101580156109b7575060058111155b610a035760405162461bcd60e51b815260206004820152600e60248201527f496e76616c696420726174696e6700000000000000000000000000000000000060448201526064016102ac565b6001600160a01b0380831660008181526002602052604090205490911614610a6d5760405162461bcd60e51b815260206004820152601260248201527f437573746f6d6572206e6f7420666f756e64000000000000000000000000000060448201526064016102ac565b6001600160a01b038216600090815260016020908152604080832033845260020190915290205460ff1615610ae45760405162461bcd60e51b815260206004820152601b60248201527f416c7265616479207261746564207468697320637573746f6d6572000000000060448201526064016102ac565b6001600160a01b03821660009081526001602052604081208054839290610b0c908490611e98565b90915550506001600160a01b038216600090815260016020819052604082208101805491929091610b3e908490611e98565b90915550506001600160a01b0382166000818152600160208181526040808420338086526002909101835293819020805460ff191690931790925590518481529192917f29062425ffc9210a740456eb2d2e292e0bcbf72ea886ccc9a973e005ab4baca9910160405180910390a35050565b3360008181526003602052604081206001015490916001600160a01b0390911614610c0d5760405162461bcd60e51b815260206004820152600d60248201526c13dc99c81b9bdd08195e1a5cdd609a1b60448201526064016102ac565b6001600160a01b03808a166000818152600260205260409020549091161415610c785760405162461bcd60e51b815260206004820152601360248201527f5573657220616c7265616479206578697374730000000000000000000000000060448201526064016102ac565b610c8889898989898989896117f9565b610c9189610cd2565b50604080516001600160a01b038b16815285151560208201527f1d22f26dee56193a2da8b325a26e02b936d68be9f49c0a6f92534464aa8f2ecf9101610935565b3360008181526003602052604081206001015490916001600160a01b0390911614610d2f5760405162461bcd60e51b815260206004820152600d60248201526c13dc99c81b9bdd08195e1a5cdd609a1b60448201526064016102ac565b6001600160a01b0380831660008181526002602052604090205490911614610d995760405162461bcd60e51b815260206004820152601660248201527f437573746f6d657220646f65736e74206578697374730000000000000000000060448201526064016102ac565b610da382336112af565b15610df05760405162461bcd60e51b815260206004820152601360248201527f416c72656164792068617665206163636573730000000000000000000000000060448201526064016102ac565b610df982611963565b15610e465760405162461bcd60e51b815260206004820152601660248201527f5265717565737420416c7265616479204578697374730000000000000000000060448201526064016102ac565b336000818152600460208181526040808420815180830183526001808301805483526001600160a01b038b8116848801818152600296870180548087018255908c52898c2096519088029096019586555194840180549583166001600160a01b03199687161790558952600587528589208651808801909752888852825487528688018b815281548086018355918b52888b20975191909602909601958655935194909101805494909316939091169290921790559383525281549190610f0c83611f3b565b90915550503360009081526004602052604090206001908101547f218ec21215c511260c909dd233fc0cb1190ef18c6eba8027742533695f40eaad91610f5191611ed2565b604080519182523360208301526001600160a01b03851690820152600060608201526080016103c3565b600080546001600160a01b03163314156105325750600190565b6000606080606080600080610faa88336112af565b610ff65760405162461bcd60e51b815260206004820152601e60248201527f55736572206861736e7420676976656e20746865697220636f6e73656e74000060448201526064016102ac565b6001600160a01b038816600090815260026020819052604090912060088101546005820154600683015460018401805460ff90941695909490810193600382019360049092019290869061104990611f00565b80601f016020809104026020016040519081016040528092919081815260200182805461107590611f00565b80156110c25780601f10611097576101008083540402835291602001916110c2565b820191906000526020600020905b8154815290600101906020018083116110a557829003601f168201915b505050505095508480546110d590611f00565b80601f016020809104026020016040519081016040528092919081815260200182805461110190611f00565b801561114e5780601f106111235761010080835404028352916020019161114e565b820191906000526020600020905b81548152906001019060200180831161113157829003601f168201915b5050505050945083805461116190611f00565b80601f016020809104026020016040519081016040528092919081815260200182805461118d90611f00565b80156111da5780601f106111af576101008083540402835291602001916111da565b820191906000526020600020905b8154815290600101906020018083116111bd57829003601f168201915b505050505093508280546111ed90611f00565b80601f016020809104026020016040519081016040528092919081815260200182805461121990611f00565b80156112665780601f1061123b57610100808354040283529160200191611266565b820191906000526020600020905b81548152906001019060200180831161124957829003601f168201915b505050505092509650965096509650965096509650919395979092949650565b3360008181526002602052604081205490916001600160a01b0390911614156105325750600190565b6000805b6001600160a01b03841660009081526002602052604090206007015481101561133f576001600160a01b0384811660009081526002602052604090206007018054918516918390811061130857611308611f82565b6000918252602090912001546001600160a01b0316141561132d5760019150506107bc565b8061133781611f3b565b9150506112b3565b5060009392505050565b600061135583836119f8565b6001600160a01b038416600090815260026020526040902060070180549192509061138290600190611ed2565b8154811061139257611392611f82565b60009182526020808320909101546001600160a01b038681168452600290925260409092206007018054919092169190839081106113d2576113d2611f82565b600091825260208083209190910180546001600160a01b0319166001600160a01b03948516179055918516815260029091526040902060070180548061141a5761141a611f6c565b600082815260209020810160001990810180546001600160a01b0319169055019055505050565b600061144d8383611a8a565b6001600160a01b038316600090815260046020526040902060020180549192509061147a90600190611ed2565b8154811061148a5761148a611f82565b906000526020600020906002020160046000846001600160a01b03166001600160a01b0316815260200190815260200160002060020185815481106114d1576114d1611f82565b6000918252602080832084546002938402909101908155600194850154940180546001600160a01b0319166001600160a01b0395861617905592851682526004909252604090200180548061152857611528611f6c565b60008281526020808220600260001990940193840201828155600190810180546001600160a01b0319169055929093556001600160a01b0386168152600590925260409091208054909161157b91611ed2565b8154811061158b5761158b611f82565b906000526020600020906002020160056000856001600160a01b03166001600160a01b0316815260200190815260200160002060000182815481106115d2576115d2611f82565b6000918252602080832084546002909302019182556001938401549390910180546001600160a01b0319166001600160a01b03948516179055918516815260059091526040902080548061162857611628611f6c565b60008281526020808220600260001990940184810290910183815560010180546001600160a01b0319169055909355338152600490925260409091200154841480159061169057506001600160a01b0382166000908152600460205260409020600190810154115b15611786576001600160a01b03821660009081526004602052604090206002018054859190829081106116c5576116c5611f82565b60009182526020808320600292830201939093556001600160a01b038516825260049092526040812090910180548690811061170357611703611f82565b60009182526020808320600160029093020191909101546001600160a01b0316808352600590915260409091205490915015611784576117438184611a8a565b6001600160a01b0382166000908152600560205260409020805491935086918490811061177257611772611f82565b60009182526020909120600290910201555b505b6001600160a01b03821660009081526004602052604081206001018054916117ad83611ee9565b9091555050604080518581526001600160a01b03841660208201527f5bc31e521401c7e4fbe27cc8e953ddcd66ce6cc84d810d1850450e7964029d95910160405180910390a150505050565b600087511161180757600080fd5b600086511161181557600080fd5b600084511161182357600080fd5b600085511161183157600080fd5b6001600160a01b038816600081815260026020908152604090912080546001600160a01b0319169092178255885161186f92600101918a0190611b17565b506001600160a01b0388166000908152600260208181526040909220885161189f93919092019190890190611b17565b506001600160a01b038816600090815260026020908152604090912086516118cf92600390920191880190611b17565b506001600160a01b038816600090815260026020908152604090912085516118ff92600490920191870190611b17565b506001600160a01b0397909716600081815260026020908152604080832060088101805460ff191697151597909717909655600580870195909555600690950199909955919097522060010180546001600160a01b03191690951790945550505050565b6000805b336000908152600460205260409020600101548110156119ef5733600090815260046020526040902060020180546001600160a01b0385169190839081106119b1576119b1611f82565b60009182526020909120600160029092020101546001600160a01b031614156119dd5750600192915050565b806119e781611f3b565b915050611967565b50600092915050565b6000805b6001600160a01b038416600090815260026020526040902060070154811015611a83576001600160a01b03848116600090815260026020526040902060070180549185169183908110611a5157611a51611f82565b6000918252602090912001546001600160a01b03161415611a7157611a83565b80611a7b81611f3b565b9150506119fc565b9392505050565b6000805b6001600160a01b038416600090815260056020526040902054811015611a83576001600160a01b03848116600090815260056020526040902080549185169183908110611add57611add611f82565b60009182526020909120600160029092020101546001600160a01b03161415611b0557611a83565b80611b0f81611f3b565b915050611a8e565b828054611b2390611f00565b90600052602060002090601f016020900481019282611b455760008555611b8b565b82601f10611b5e57805160ff1916838001178555611b8b565b82800160010185558215611b8b579182015b82811115611b8b578251825591602001919060010190611b70565b50611b97929150611b9b565b5090565b5b80821115611b975760008155600101611b9c565b80356001600160a01b03811681146103cf57600080fd5b803580151581146103cf57600080fd5b600082601f830112611be857600080fd5b813567ffffffffffffffff80821115611c0357611c03611f98565b604051601f8301601f19908116603f01168101908282118183101715611c2b57611c2b611f98565b81604052838152866020858801011115611c4457600080fd5b836020870160208301376000602085830101528094505050505092915050565b600060208284031215611c7657600080fd5b611a8382611bb0565b600080600080600080600080610100898b031215611c9c57600080fd5b611ca589611bb0565b9750602089013567ffffffffffffffff80821115611cc257600080fd5b611cce8c838d01611bd7565b985060408b0135915080821115611ce457600080fd5b611cf08c838d01611bd7565b975060608b0135915080821115611d0657600080fd5b611d128c838d01611bd7565b965060808b0135915080821115611d2857600080fd5b50611d358b828c01611bd7565b945050611d4460a08a01611bc7565b925060c0890135915060e089013590509295985092959890939650565b60008060408385031215611d7457600080fd5b611d7d83611bb0565b946020939093013593505050565b600060208284031215611d9d57600080fd5b5035919050565b6000815180845260005b81811015611dca57602081850181015186830182015201611dae565b81811115611ddc576000602083870101525b50601f01601f19169290920160200192915050565b871515815260e060208201526000611e0c60e0830189611da4565b8281036040840152611e1e8189611da4565b90508281036060840152611e328188611da4565b90508281036080840152611e468187611da4565b60a0840195909552505060c0015295945050505050565b602081526000825160406020840152611e796060840182611da4565b90506001600160a01b0360208501511660408401528091505092915050565b60008219821115611eab57611eab611f56565b500190565b600082611ecd57634e487b7160e01b600052601260045260246000fd5b500490565b600082821015611ee457611ee4611f56565b500390565b600081611ef857611ef8611f56565b506000190190565b600181811c90821680611f1457607f821691505b60208210811415611f3557634e487b7160e01b600052602260045260246000fd5b50919050565b6000600019821415611f4f57611f4f611f56565b5060010190565b634e487b7160e01b600052601160045260246000fd5b634e487b7160e01b600052603160045260246000fd5b634e487b7160e01b600052603260045260246000fd5b634e487b7160e01b600052604160045260246000fdfea2646970667358221220dd2079ccf12c445a80ebe9966957703f7e95c573a6cdbbe5570f75241e00920664736f6c63430008070033",
  "immutableReferences": {},
  "source": "// SPDX-License-Identifier: MIT\npragma solidity >=0.4.22 <0.9.0;\n\nimport \"./Variables.sol\";\nimport \"./Modifiers.sol\";\nimport \"./Events.sol\";\nimport \"./Functions.sol\";\n\ncontract Org is Variables, Modifiers,Events, Functions{\n    //Register User KYC by registered Orgs\n    function registerKYC(\n        address _custaddress,\n        string memory _jsonHash,\n        string memory _photohash,\n        string memory _citizenship_front_hash,\n        string memory _citizenship_back_hash,\n        bool _kycStatus,\n        uint _d,\n        uint _n\n    ) public isOrgValid returns (bool) {\n        require(\n            customers[_custaddress].custAddress != _custaddress,\n            \"User already exists\"\n        );\n        writeKYC(\n            _custaddress,\n            _jsonHash,\n            _photohash,\n            _citizenship_front_hash,\n            _citizenship_back_hash,\n            _kycStatus,\n            _d,\n            _n\n        );\n        requestKYC(_custaddress);\n        emit Events.customerAdded(_custaddress, _kycStatus);\n        return true;\n    }\n\n    function rateCustomer(\n        address _custaddress,\n        uint _rating\n    ) public isOrgValid {\n        require(_rating >= 1 && _rating <= 5, \"Invalid rating\");\n        require(\n            customers[_custaddress].custAddress == _custaddress,\n            \"Customer not found\"\n        );\n        require(\n            !customerRatings[_custaddress].ratedBy[msg.sender],\n            \"Already rated this customer\"\n        );\n\n        customerRatings[_custaddress].totalRating += _rating;\n        customerRatings[_custaddress].numRatings += 1;\n        customerRatings[_custaddress].ratedBy[msg.sender] = true;\n\n        emit Events.CustomerRated(_custaddress, msg.sender, _rating);\n    }\n\n    function getCustomerRating(\n        address _custaddress\n    ) public view returns (uint) {\n        require(\n            customers[_custaddress].custAddress == _custaddress,\n            \"Customer not found\"\n        );\n        if (customerRatings[_custaddress].numRatings == 0) {\n            return 0;\n        }\n        return\n            customerRatings[_custaddress].totalRating /\n            customerRatings[_custaddress].numRatings;\n    }\n\n    //View User KYC by Authorized Orgs\n    function viewKYC(\n        address _custaddress\n    )\n        public\n        view\n        returns (\n            bool,\n            string memory,\n            string memory,\n            string memory,\n            string memory,\n            uint,\n            uint\n        )\n    {\n        require(\n            findOrg(_custaddress, msg.sender),\n            \"User hasnt given their consent\"\n        );\n        return (\n            customers[_custaddress].kycStatus,\n            customers[_custaddress].jsonHash,\n            customers[_custaddress].photoHash,\n            customers[_custaddress].citizenship_front_hash,\n            customers[_custaddress].citizenship_back_hash,\n            customers[_custaddress].d,\n            customers[_custaddress].n\n        );\n    }\n\n\n\n    function validOrg() public view returns (bool) {\n        if (organizations[msg.sender].ethAddress == msg.sender) {\n            return true;\n        } else {\n            return false;\n        }\n    }\n\n        function getYourOrgDetail()\n        public\n        view\n        isOrgValid\n        returns (Organization memory)\n    {\n        return organizations[msg.sender];\n    }\n\n        //Update User KYC by registered and authorized orgs\n    function updateKYC(\n        address _custaddress,\n        string memory _jsonHash,\n        string memory _photohash,\n        string memory _citizenship_front_hash,\n        string memory _citizenship_back_hash,\n        bool _kycStatus,\n        uint _d,\n        uint _n\n    ) public isOrgValid returns (bool) {\n        require(\n            customers[_custaddress].custAddress == _custaddress,\n            \"User doesn't exist\"\n        );\n        require(\n            findOrg(_custaddress, msg.sender),\n            \"You dont have access to this user\"\n        );\n        writeKYC(\n            _custaddress,\n            _jsonHash,\n            _photohash,\n            _citizenship_front_hash,\n            _citizenship_back_hash,\n            _kycStatus,\n            _d,\n            _n\n        );\n        emit Events.customerUpdated(_custaddress, _kycStatus);\n        return true;\n    }\n\n    //Delete User KYC request by organization\n    function deleteRequestOrg(uint _reqcount) public isOrgValid returns (bool) {\n        require(\n            kycrequestsbyorg[msg.sender].ethAddress == msg.sender,\n            \"You dont have authority to delete\"\n        );\n        require(\n            kycrequestsbyorg[msg.sender].kycrequestlist[_reqcount].req_count ==\n                _reqcount,\n            \"Request doesnt exist\"\n        );\n        address _custaddress = kycrequestsbyorg[msg.sender]\n            .kycrequestlist[_reqcount]\n            .Address;\n        deleteRequest(_reqcount, _custaddress, msg.sender);\n        return true;\n    }\n\n    //Remove User KYC by Orgs\n    function removeKYC(address _custaddress) public isOrgValid returns (bool) {\n        require(\n            customers[_custaddress].custAddress == _custaddress,\n            \"User doesn't exist\"\n        );\n        require(\n            findOrg(_custaddress, msg.sender),\n            \"You dont have access to this user\"\n        );\n        remove(_custaddress, msg.sender);\n        emit Events.kycRemoved(_custaddress, msg.sender);\n        return true;\n    }\n}",
  "sourcePath": "/Users/obedovabor/Projects/kyc/contracts/Org.sol",
  "compiler": {
    "name": "solc",
    "version": "0.8.7+commit.e28d00a7.Emscripten.clang"
  },
  "schemaVersion": "3.4.11",
  "updatedAt": "2023-03-25T12:24:17.790Z",
  "devdoc": {
    "kind": "dev",
    "methods": {},
    "version": 1
  },
  "userdoc": {
    "kind": "user",
    "methods": {},
    "version": 1
  }
}